{
  "_format": "hh-sol-artifact-1",
  "contractName": "EVault",
  "sourceName": "contracts/Evault.sol",
  "abi": [
    {
      "inputs": [],
      "stateMutability": "nonpayable",
      "type": "constructor"
    },
    {
      "anonymous": false,
      "inputs": [
        {
          "indexed": true,
          "internalType": "address",
          "name": "uploader",
          "type": "address"
        },
        {
          "indexed": true,
          "internalType": "uint256",
          "name": "fileId",
          "type": "uint256"
        },
        {
          "indexed": false,
          "internalType": "string",
          "name": "ipfsHash",
          "type": "string"
        },
        {
          "indexed": false,
          "internalType": "string",
          "name": "title",
          "type": "string"
        },
        {
          "indexed": false,
          "internalType": "string",
          "name": "dateOfJudgment",
          "type": "string"
        },
        {
          "indexed": false,
          "internalType": "string",
          "name": "caseNumber",
          "type": "string"
        },
        {
          "indexed": false,
          "internalType": "string",
          "name": "category",
          "type": "string"
        },
        {
          "indexed": false,
          "internalType": "string",
          "name": "judgeName",
          "type": "string"
        },
        {
          "indexed": false,
          "internalType": "uint256",
          "name": "timestamp",
          "type": "uint256"
        }
      ],
      "name": "FileUploaded",
      "type": "event"
    },
    {
      "inputs": [
        {
          "internalType": "address",
          "name": "_official",
          "type": "address"
        }
      ],
      "name": "addCourtOfficial",
      "outputs": [],
      "stateMutability": "nonpayable",
      "type": "function"
    },
    {
      "inputs": [
        {
          "internalType": "uint256",
          "name": "",
          "type": "uint256"
        }
      ],
      "name": "caseFiles",
      "outputs": [
        {
          "internalType": "address",
          "name": "uploader",
          "type": "address"
        },
        {
          "internalType": "string",
          "name": "ipfsHash",
          "type": "string"
        },
        {
          "internalType": "string",
          "name": "title",
          "type": "string"
        },
        {
          "internalType": "string",
          "name": "dateOfJudgment",
          "type": "string"
        },
        {
          "internalType": "string",
          "name": "caseNumber",
          "type": "string"
        },
        {
          "internalType": "string",
          "name": "category",
          "type": "string"
        },
        {
          "internalType": "string",
          "name": "judgeName",
          "type": "string"
        },
        {
          "internalType": "uint256",
          "name": "timestamp",
          "type": "uint256"
        }
      ],
      "stateMutability": "view",
      "type": "function"
    },
    {
      "inputs": [],
      "name": "owner",
      "outputs": [
        {
          "internalType": "address",
          "name": "",
          "type": "address"
        }
      ],
      "stateMutability": "view",
      "type": "function"
    },
    {
      "inputs": [
        {
          "internalType": "address",
          "name": "_official",
          "type": "address"
        }
      ],
      "name": "removeCourtOfficial",
      "outputs": [],
      "stateMutability": "nonpayable",
      "type": "function"
    },
    {
      "inputs": [
        {
          "internalType": "string",
          "name": "_title",
          "type": "string"
        }
      ],
      "name": "searchByTitle",
      "outputs": [
        {
          "internalType": "uint256[]",
          "name": "",
          "type": "uint256[]"
        }
      ],
      "stateMutability": "view",
      "type": "function"
    },
    {
      "inputs": [],
      "name": "totalCaseFiles",
      "outputs": [
        {
          "internalType": "uint256",
          "name": "",
          "type": "uint256"
        }
      ],
      "stateMutability": "view",
      "type": "function"
    },
    {
      "inputs": [
        {
          "internalType": "string",
          "name": "_ipfsHash",
          "type": "string"
        },
        {
          "internalType": "string",
          "name": "_title",
          "type": "string"
        },
        {
          "internalType": "string",
          "name": "_dateOfJudgment",
          "type": "string"
        },
        {
          "internalType": "string",
          "name": "_caseNumber",
          "type": "string"
        },
        {
          "internalType": "string",
          "name": "_category",
          "type": "string"
        },
        {
          "internalType": "string",
          "name": "_judgeName",
          "type": "string"
        }
      ],
      "name": "uploadFile",
      "outputs": [],
      "stateMutability": "nonpayable",
      "type": "function"
    }
  ],
  "bytecode": "0x608060405234801561001057600080fd5b50336000806101000a81548173ffffffffffffffffffffffffffffffffffffffff021916908373ffffffffffffffffffffffffffffffffffffffff1602179055506117f0806100606000396000f3fe608060405234801561001057600080fd5b506004361061007d5760003560e01c80638da5cb5b1161005b5780638da5cb5b146100ec578063a3373a891461010a578063bb5806b714610126578063fbebf5df146101425761007d565b80631bc9d8a4146100825780635bab3ba1146100a05780636a33727c146100d0575b600080fd5b61008a610179565b6040516100979190610b4b565b60405180910390f35b6100ba60048036038101906100b59190610cc0565b61017f565b6040516100c79190610dc7565b60405180910390f35b6100ea60048036038101906100e59190610e47565b61026f565b005b6100f4610357565b6040516101019190610e83565b60405180910390f35b610124600480360381019061011f9190610e47565b61037b565b005b610140600480360381019061013b9190610e9e565b610464565b005b61015c60048036038101906101579190610fff565b6106ee565b6040516101709897969594939291906110ab565b60405180910390f35b60035481565b6060600060035467ffffffffffffffff81111561019f5761019e610b95565b5b6040519080825280602002602001820160405280156101cd5781602001602082028036833780820191505090505b509050600080600190505b600354811161025b5784805190602001206002600083815260200190815260200160002060020160405161020c9190611256565b604051809103902003610248578083838151811061022d5761022c61126d565b5b6020026020010181815250508180610244906112cb565b9250505b8080610253906112cb565b9150506101d8565b506102668282610a86565b92505050919050565b60008054906101000a900473ffffffffffffffffffffffffffffffffffffffff1673ffffffffffffffffffffffffffffffffffffffff163373ffffffffffffffffffffffffffffffffffffffff16146102fd576040517f08c379a00000000000000000000000000000000000000000000000000000000081526004016102f490611385565b60405180910390fd5b60018060008373ffffffffffffffffffffffffffffffffffffffff1673ffffffffffffffffffffffffffffffffffffffff16815260200190815260200160002060006101000a81548160ff02191690831515021790555050565b60008054906101000a900473ffffffffffffffffffffffffffffffffffffffff1681565b60008054906101000a900473ffffffffffffffffffffffffffffffffffffffff1673ffffffffffffffffffffffffffffffffffffffff163373ffffffffffffffffffffffffffffffffffffffff1614610409576040517f08c379a000000000000000000000000000000000000000000000000000000000815260040161040090611385565b60405180910390fd5b6000600160008373ffffffffffffffffffffffffffffffffffffffff1673ffffffffffffffffffffffffffffffffffffffff16815260200190815260200160002060006101000a81548160ff02191690831515021790555050565b600160003373ffffffffffffffffffffffffffffffffffffffff1673ffffffffffffffffffffffffffffffffffffffff16815260200190815260200160002060009054906101000a900460ff166104f0576040517f08c379a00000000000000000000000000000000000000000000000000000000081526004016104e790611417565b60405180910390fd5b6000865111610534576040517f08c379a000000000000000000000000000000000000000000000000000000000815260040161052b90611483565b60405180910390fd5b60036000815480929190610547906112cb565b91905055506040518061010001604052803373ffffffffffffffffffffffffffffffffffffffff1681526020018781526020018681526020018581526020018481526020018381526020018281526020014281525060026000600354815260200190815260200160002060008201518160000160006101000a81548173ffffffffffffffffffffffffffffffffffffffff021916908373ffffffffffffffffffffffffffffffffffffffff160217905550602082015181600101908161060d919061164f565b506040820151816002019081610623919061164f565b506060820151816003019081610639919061164f565b50608082015181600401908161064f919061164f565b5060a0820151816005019081610665919061164f565b5060c082015181600601908161067b919061164f565b5060e082015181600701559050506003543373ffffffffffffffffffffffffffffffffffffffff167f9b023aa1ebc178c22417a31b610014e18f344039d7158493452037530b131b2d888888888888426040516106de9796959493929190611721565b60405180910390a3505050505050565b60026020528060005260406000206000915090508060000160009054906101000a900473ffffffffffffffffffffffffffffffffffffffff169080600101805461073790611182565b80601f016020809104026020016040519081016040528092919081815260200182805461076390611182565b80156107b05780601f10610785576101008083540402835291602001916107b0565b820191906000526020600020905b81548152906001019060200180831161079357829003601f168201915b5050505050908060020180546107c590611182565b80601f01602080910402602001604051908101604052809291908181526020018280546107f190611182565b801561083e5780601f106108135761010080835404028352916020019161083e565b820191906000526020600020905b81548152906001019060200180831161082157829003601f168201915b50505050509080600301805461085390611182565b80601f016020809104026020016040519081016040528092919081815260200182805461087f90611182565b80156108cc5780601f106108a1576101008083540402835291602001916108cc565b820191906000526020600020905b8154815290600101906020018083116108af57829003601f168201915b5050505050908060040180546108e190611182565b80601f016020809104026020016040519081016040528092919081815260200182805461090d90611182565b801561095a5780601f1061092f5761010080835404028352916020019161095a565b820191906000526020600020905b81548152906001019060200180831161093d57829003601f168201915b50505050509080600501805461096f90611182565b80601f016020809104026020016040519081016040528092919081815260200182805461099b90611182565b80156109e85780601f106109bd576101008083540402835291602001916109e8565b820191906000526020600020905b8154815290600101906020018083116109cb57829003601f168201915b5050505050908060060180546109fd90611182565b80601f0160208091040260200160405190810160405280929190818152602001828054610a2990611182565b8015610a765780601f10610a4b57610100808354040283529160200191610a76565b820191906000526020600020905b815481529060010190602001808311610a5957829003601f168201915b5050505050908060070154905088565b606060008267ffffffffffffffff811115610aa457610aa3610b95565b5b604051908082528060200260200182016040528015610ad25781602001602082028036833780820191505090505b50905060005b83811015610b2757848181518110610af357610af261126d565b5b6020026020010151828281518110610b0e57610b0d61126d565b5b6020026020010181815250508080600101915050610ad8565b508091505092915050565b6000819050919050565b610b4581610b32565b82525050565b6000602082019050610b606000830184610b3c565b92915050565b6000604051905090565b600080fd5b600080fd5b600080fd5b600080fd5b6000601f19601f8301169050919050565b7f4e487b7100000000000000000000000000000000000000000000000000000000600052604160045260246000fd5b610bcd82610b84565b810181811067ffffffffffffffff82111715610bec57610beb610b95565b5b80604052505050565b6000610bff610b66565b9050610c0b8282610bc4565b919050565b600067ffffffffffffffff821115610c2b57610c2a610b95565b5b610c3482610b84565b9050602081019050919050565b82818337600083830152505050565b6000610c63610c5e84610c10565b610bf5565b905082815260208101848484011115610c7f57610c7e610b7f565b5b610c8a848285610c41565b509392505050565b600082601f830112610ca757610ca6610b7a565b5b8135610cb7848260208601610c50565b91505092915050565b600060208284031215610cd657610cd5610b70565b5b600082013567ffffffffffffffff811115610cf457610cf3610b75565b5b610d0084828501610c92565b91505092915050565b600081519050919050565b600082825260208201905092915050565b6000819050602082019050919050565b610d3e81610b32565b82525050565b6000610d508383610d35565b60208301905092915050565b6000602082019050919050565b6000610d7482610d09565b610d7e8185610d14565b9350610d8983610d25565b8060005b83811015610dba578151610da18882610d44565b9750610dac83610d5c565b925050600181019050610d8d565b5085935050505092915050565b60006020820190508181036000830152610de18184610d69565b905092915050565b600073ffffffffffffffffffffffffffffffffffffffff82169050919050565b6000610e1482610de9565b9050919050565b610e2481610e09565b8114610e2f57600080fd5b50565b600081359050610e4181610e1b565b92915050565b600060208284031215610e5d57610e5c610b70565b5b6000610e6b84828501610e32565b91505092915050565b610e7d81610e09565b82525050565b6000602082019050610e986000830184610e74565b92915050565b60008060008060008060c08789031215610ebb57610eba610b70565b5b600087013567ffffffffffffffff811115610ed957610ed8610b75565b5b610ee589828a01610c92565b965050602087013567ffffffffffffffff811115610f0657610f05610b75565b5b610f1289828a01610c92565b955050604087013567ffffffffffffffff811115610f3357610f32610b75565b5b610f3f89828a01610c92565b945050606087013567ffffffffffffffff811115610f6057610f5f610b75565b5b610f6c89828a01610c92565b935050608087013567ffffffffffffffff811115610f8d57610f8c610b75565b5b610f9989828a01610c92565b92505060a087013567ffffffffffffffff811115610fba57610fb9610b75565b5b610fc689828a01610c92565b9150509295509295509295565b610fdc81610b32565b8114610fe757600080fd5b50565b600081359050610ff981610fd3565b92915050565b60006020828403121561101557611014610b70565b5b600061102384828501610fea565b91505092915050565b600081519050919050565b600082825260208201905092915050565b60005b8381101561106657808201518184015260208101905061104b565b60008484015250505050565b600061107d8261102c565b6110878185611037565b9350611097818560208601611048565b6110a081610b84565b840191505092915050565b6000610100820190506110c1600083018b610e74565b81810360208301526110d3818a611072565b905081810360408301526110e78189611072565b905081810360608301526110fb8188611072565b9050818103608083015261110f8187611072565b905081810360a08301526111238186611072565b905081810360c08301526111378185611072565b905061114660e0830184610b3c565b9998505050505050505050565b7f4e487b7100000000000000000000000000000000000000000000000000000000600052602260045260246000fd5b6000600282049050600182168061119a57607f821691505b6020821081036111ad576111ac611153565b5b50919050565b600081905092915050565b60008190508160005260206000209050919050565b600081546111e081611182565b6111ea81866111b3565b94506001821660008114611205576001811461121a5761124d565b60ff198316865281151582028601935061124d565b611223856111be565b60005b8381101561124557815481890152600182019150602081019050611226565b838801955050505b50505092915050565b600061126282846111d3565b915081905092915050565b7f4e487b7100000000000000000000000000000000000000000000000000000000600052603260045260246000fd5b7f4e487b7100000000000000000000000000000000000000000000000000000000600052601160045260246000fd5b60006112d682610b32565b91507fffffffffffffffffffffffffffffffffffffffffffffffffffffffffffffffff82036113085761130761129c565b5b600182019050919050565b7f4f6e6c7920746865206f776e65722063616e20706572666f726d20746869732060008201527f616374696f6e0000000000000000000000000000000000000000000000000000602082015250565b600061136f602683611037565b915061137a82611313565b604082019050919050565b6000602082019050818103600083015261139e81611362565b9050919050565b7f4f6e6c7920636f757274206f6666696369616c732063616e2075706c6f61642060008201527f66696c6573000000000000000000000000000000000000000000000000000000602082015250565b6000611401602583611037565b915061140c826113a5565b604082019050919050565b60006020820190508181036000830152611430816113f4565b9050919050565b7f4950465320686173682069732072657175697265640000000000000000000000600082015250565b600061146d601583611037565b915061147882611437565b602082019050919050565b6000602082019050818103600083015261149c81611460565b9050919050565b60008190508160005260206000209050919050565b60006020601f8301049050919050565b600082821b905092915050565b6000600883026115057fffffffffffffffffffffffffffffffffffffffffffffffffffffffffffffffff826114c8565b61150f86836114c8565b95508019841693508086168417925050509392505050565b6000819050919050565b600061154c61154761154284610b32565b611527565b610b32565b9050919050565b6000819050919050565b61156683611531565b61157a61157282611553565b8484546114d5565b825550505050565b600090565b61158f611582565b61159a81848461155d565b505050565b5b818110156115be576115b3600082611587565b6001810190506115a0565b5050565b601f821115611603576115d4816114a3565b6115dd846114b8565b810160208510156115ec578190505b6116006115f8856114b8565b83018261159f565b50505b505050565b600082821c905092915050565b600061162660001984600802611608565b1980831691505092915050565b600061163f8383611615565b9150826002028217905092915050565b6116588261102c565b67ffffffffffffffff81111561167157611670610b95565b5b61167b8254611182565b6116868282856115c2565b600060209050601f8311600181146116b957600084156116a7578287015190505b6116b18582611633565b865550611719565b601f1984166116c7866114a3565b60005b828110156116ef578489015182556001820191506020850194506020810190506116ca565b8683101561170c5784890151611708601f891682611615565b8355505b6001600288020188555050505b505050505050565b600060e082019050818103600083015261173b818a611072565b9050818103602083015261174f8189611072565b905081810360408301526117638188611072565b905081810360608301526117778187611072565b9050818103608083015261178b8186611072565b905081810360a083015261179f8185611072565b90506117ae60c0830184610b3c565b9897505050505050505056fea2646970667358221220a5d5b2b65020790d8ce111d8c68d6de88f705e2c79a9a617d36f4b985f10cb7f64736f6c63430008180033",
  "linkReferences": {},
  "deployedLinkReferences": {}
}