{
  "_format": "hh-sol-artifact-1",
  "contractName": "kevault",
  "sourceName": "contracts/kevault.sol",
  "abi": [
    {
      "inputs": [],
      "stateMutability": "nonpayable",
      "type": "constructor"
    },
    {
      "anonymous": false,
      "inputs": [
        {
          "indexed": true,
          "internalType": "uint256",
          "name": "fileId",
          "type": "uint256"
        },
        {
          "indexed": false,
          "internalType": "address",
          "name": "client",
          "type": "address"
        }
      ],
      "name": "ClientLinked",
      "type": "event"
    },
    {
      "anonymous": false,
      "inputs": [
        {
          "indexed": true,
          "internalType": "address",
          "name": "uploader",
          "type": "address"
        },
        {
          "indexed": true,
          "internalType": "uint256",
          "name": "fileId",
          "type": "uint256"
        },
        {
          "indexed": false,
          "internalType": "string",
          "name": "ipfsHash",
          "type": "string"
        },
        {
          "indexed": false,
          "internalType": "string",
          "name": "title",
          "type": "string"
        },
        {
          "indexed": false,
          "internalType": "string",
          "name": "dateOfJudgment",
          "type": "string"
        },
        {
          "indexed": false,
          "internalType": "string",
          "name": "caseNumber",
          "type": "string"
        },
        {
          "indexed": false,
          "internalType": "string",
          "name": "category",
          "type": "string"
        },
        {
          "indexed": false,
          "internalType": "string",
          "name": "judgeName",
          "type": "string"
        },
        {
          "indexed": false,
          "internalType": "uint256",
          "name": "timestamp",
          "type": "uint256"
        },
        {
          "indexed": false,
          "internalType": "address[]",
          "name": "linkedClients",
          "type": "address[]"
        }
      ],
      "name": "FileUploaded",
      "type": "event"
    },
    {
      "inputs": [
        {
          "internalType": "address",
          "name": "_official",
          "type": "address"
        }
      ],
      "name": "addCourtOfficial",
      "outputs": [],
      "stateMutability": "nonpayable",
      "type": "function"
    },
    {
      "inputs": [
        {
          "internalType": "uint256",
          "name": "",
          "type": "uint256"
        }
      ],
      "name": "caseFiles",
      "outputs": [
        {
          "internalType": "address",
          "name": "uploader",
          "type": "address"
        },
        {
          "internalType": "string",
          "name": "ipfsHash",
          "type": "string"
        },
        {
          "internalType": "string",
          "name": "title",
          "type": "string"
        },
        {
          "internalType": "string",
          "name": "dateOfJudgment",
          "type": "string"
        },
        {
          "internalType": "string",
          "name": "caseNumber",
          "type": "string"
        },
        {
          "internalType": "string",
          "name": "category",
          "type": "string"
        },
        {
          "internalType": "string",
          "name": "judgeName",
          "type": "string"
        },
        {
          "internalType": "uint256",
          "name": "timestamp",
          "type": "uint256"
        }
      ],
      "stateMutability": "view",
      "type": "function"
    },
    {
      "inputs": [
        {
          "internalType": "uint256",
          "name": "_fileId",
          "type": "uint256"
        }
      ],
      "name": "getFile",
      "outputs": [
        {
          "internalType": "address",
          "name": "uploader",
          "type": "address"
        },
        {
          "internalType": "string",
          "name": "ipfsHash",
          "type": "string"
        },
        {
          "internalType": "string",
          "name": "title",
          "type": "string"
        },
        {
          "internalType": "string",
          "name": "dateOfJudgment",
          "type": "string"
        },
        {
          "internalType": "string",
          "name": "caseNumber",
          "type": "string"
        },
        {
          "internalType": "string",
          "name": "category",
          "type": "string"
        },
        {
          "internalType": "string",
          "name": "judgeName",
          "type": "string"
        },
        {
          "internalType": "address[]",
          "name": "linkedClients",
          "type": "address[]"
        },
        {
          "internalType": "uint256",
          "name": "timestamp",
          "type": "uint256"
        }
      ],
      "stateMutability": "view",
      "type": "function"
    },
    {
      "inputs": [
        {
          "internalType": "address",
          "name": "_official",
          "type": "address"
        }
      ],
      "name": "isCourtOfficial",
      "outputs": [
        {
          "internalType": "bool",
          "name": "",
          "type": "bool"
        }
      ],
      "stateMutability": "view",
      "type": "function"
    },
    {
      "inputs": [
        {
          "internalType": "uint256",
          "name": "_fileId",
          "type": "uint256"
        },
        {
          "internalType": "address",
          "name": "_client",
          "type": "address"
        }
      ],
      "name": "linkClient",
      "outputs": [],
      "stateMutability": "nonpayable",
      "type": "function"
    },
    {
      "inputs": [],
      "name": "owner",
      "outputs": [
        {
          "internalType": "address",
          "name": "",
          "type": "address"
        }
      ],
      "stateMutability": "view",
      "type": "function"
    },
    {
      "inputs": [
        {
          "internalType": "address",
          "name": "_official",
          "type": "address"
        }
      ],
      "name": "removeCourtOfficial",
      "outputs": [],
      "stateMutability": "nonpayable",
      "type": "function"
    },
    {
      "inputs": [
        {
          "internalType": "string",
          "name": "_title",
          "type": "string"
        }
      ],
      "name": "searchByTitle",
      "outputs": [
        {
          "internalType": "uint256[]",
          "name": "",
          "type": "uint256[]"
        }
      ],
      "stateMutability": "view",
      "type": "function"
    },
    {
      "inputs": [],
      "name": "totalCaseFiles",
      "outputs": [
        {
          "internalType": "uint256",
          "name": "",
          "type": "uint256"
        }
      ],
      "stateMutability": "view",
      "type": "function"
    },
    {
      "inputs": [
        {
          "internalType": "string",
          "name": "_ipfsHash",
          "type": "string"
        },
        {
          "internalType": "string",
          "name": "_title",
          "type": "string"
        },
        {
          "internalType": "string",
          "name": "_dateOfJudgment",
          "type": "string"
        },
        {
          "internalType": "string",
          "name": "_caseNumber",
          "type": "string"
        },
        {
          "internalType": "string",
          "name": "_category",
          "type": "string"
        },
        {
          "internalType": "string",
          "name": "_judgeName",
          "type": "string"
        },
        {
          "internalType": "address[]",
          "name": "_linkedClients",
          "type": "address[]"
        }
      ],
      "name": "uploadFile",
      "outputs": [],
      "stateMutability": "nonpayable",
      "type": "function"
    }
  ],
  "bytecode": "0x608060405234801561001057600080fd5b50336000806101000a81548173ffffffffffffffffffffffffffffffffffffffff021916908373ffffffffffffffffffffffffffffffffffffffff160217905550612748806100606000396000f3fe608060405234801561001057600080fd5b506004361061009e5760003560e01c806387fddb321161006657806387fddb32146101615780638da5cb5b146101915780639c590b2f146101af578063a3373a89146101cb578063fbebf5df146101e75761009e565b80631bc9d8a4146100a35780632bfda313146100c1578063523dd93e146100f95780635bab3ba1146101155780636a33727c14610145575b600080fd5b6100ab61021e565b6040516100b89190611598565b60405180910390f35b6100db60048036038101906100d691906115f3565b610224565b6040516100f0999897969594939291906117af565b60405180910390f35b610113600480360381019061010e9190611a96565b6106fd565b005b61012f600480360381019061012a9190611bfc565b610ad7565b60405161013c9190611d03565b60405180910390f35b61015f600480360381019061015a9190611d25565b610bc7565b005b61017b60048036038101906101769190611d25565b610caf565b6040516101889190611d6d565b60405180910390f35b610199610d05565b6040516101a69190611d88565b60405180910390f35b6101c960048036038101906101c49190611da3565b610d29565b005b6101e560048036038101906101e09190611d25565b610fab565b005b61020160048036038101906101fc91906115f3565b611094565b604051610215989796959493929190611de3565b60405180910390f35b60035481565b60006060806060806060806060600080600260008c8152602001908152602001600020604051806101200160405290816000820160009054906101000a900473ffffffffffffffffffffffffffffffffffffffff1673ffffffffffffffffffffffffffffffffffffffff1673ffffffffffffffffffffffffffffffffffffffff1681526020016001820180546102b990611eba565b80601f01602080910402602001604051908101604052809291908181526020018280546102e590611eba565b80156103325780601f1061030757610100808354040283529160200191610332565b820191906000526020600020905b81548152906001019060200180831161031557829003601f168201915b5050505050815260200160028201805461034b90611eba565b80601f016020809104026020016040519081016040528092919081815260200182805461037790611eba565b80156103c45780601f10610399576101008083540402835291602001916103c4565b820191906000526020600020905b8154815290600101906020018083116103a757829003601f168201915b505050505081526020016003820180546103dd90611eba565b80601f016020809104026020016040519081016040528092919081815260200182805461040990611eba565b80156104565780601f1061042b57610100808354040283529160200191610456565b820191906000526020600020905b81548152906001019060200180831161043957829003601f168201915b5050505050815260200160048201805461046f90611eba565b80601f016020809104026020016040519081016040528092919081815260200182805461049b90611eba565b80156104e85780601f106104bd576101008083540402835291602001916104e8565b820191906000526020600020905b8154815290600101906020018083116104cb57829003601f168201915b5050505050815260200160058201805461050190611eba565b80601f016020809104026020016040519081016040528092919081815260200182805461052d90611eba565b801561057a5780601f1061054f5761010080835404028352916020019161057a565b820191906000526020600020905b81548152906001019060200180831161055d57829003601f168201915b5050505050815260200160068201805461059390611eba565b80601f01602080910402602001604051908101604052809291908181526020018280546105bf90611eba565b801561060c5780601f106105e15761010080835404028352916020019161060c565b820191906000526020600020905b8154815290600101906020018083116105ef57829003601f168201915b505050505081526020016007820180548060200260200160405190810160405280929190818152602001828054801561069a57602002820191906000526020600020905b8160009054906101000a900473ffffffffffffffffffffffffffffffffffffffff1673ffffffffffffffffffffffffffffffffffffffff1681526020019060010190808311610650575b505050505081526020016008820154815250509050806000015181602001518260400151836060015184608001518560a001518660c001518760e00151886101000151995099509950995099509950995099509950509193959799909294969850565b600160003373ffffffffffffffffffffffffffffffffffffffff1673ffffffffffffffffffffffffffffffffffffffff16815260200190815260200160002060009054906101000a900460ff16610789576040517f08c379a000000000000000000000000000000000000000000000000000000000815260040161078090611f5d565b60405180910390fd5b60008751116107cd576040517f08c379a00000000000000000000000000000000000000000000000000000000081526004016107c490611fc9565b60405180910390fd5b6000815111610811576040517f08c379a00000000000000000000000000000000000000000000000000000000081526004016108089061205b565b60405180910390fd5b60005b81518110156108f557600060018261082c91906120aa565b90505b82518110156108e75782818151811061084b5761084a6120de565b5b602002602001015173ffffffffffffffffffffffffffffffffffffffff1683838151811061087c5761087b6120de565b5b602002602001015173ffffffffffffffffffffffffffffffffffffffff16036108da576040517f08c379a00000000000000000000000000000000000000000000000000000000081526004016108d190612159565b60405180910390fd5b808060010191505061082f565b508080600101915050610814565b506003600081548092919061090990612179565b91905055506040518061012001604052803373ffffffffffffffffffffffffffffffffffffffff1681526020018881526020018781526020018681526020018581526020018481526020018381526020018281526020014281525060026000600354815260200190815260200160002060008201518160000160006101000a81548173ffffffffffffffffffffffffffffffffffffffff021916908373ffffffffffffffffffffffffffffffffffffffff16021790555060208201518160010190816109d5919061236d565b5060408201518160020190816109eb919061236d565b506060820151816003019081610a01919061236d565b506080820151816004019081610a17919061236d565b5060a0820151816005019081610a2d919061236d565b5060c0820151816006019081610a43919061236d565b5060e0820151816007019080519060200190610a609291906114d8565b5061010082015181600801559050506003543373ffffffffffffffffffffffffffffffffffffffff167f54fb8dd4614293967e8e7b3b03b9d368553830418f8b1624659b809d6dfba0ea898989898989428a604051610ac698979695949392919061243f565b60405180910390a350505050505050565b6060600060035467ffffffffffffffff811115610af757610af6611877565b5b604051908082528060200260200182016040528015610b255781602001602082028036833780820191505090505b509050600080600190505b6003548111610bb357848051906020012060026000838152602001908152602001600020600201604051610b649190612591565b604051809103902003610ba05780838381518110610b8557610b846120de565b5b6020026020010181815250508180610b9c90612179565b9250505b8080610bab90612179565b915050610b30565b50610bbe828261142c565b92505050919050565b60008054906101000a900473ffffffffffffffffffffffffffffffffffffffff1673ffffffffffffffffffffffffffffffffffffffff163373ffffffffffffffffffffffffffffffffffffffff1614610c55576040517f08c379a0000000000000000000000000000000000000000000000000000000008152600401610c4c9061261a565b60405180910390fd5b60018060008373ffffffffffffffffffffffffffffffffffffffff1673ffffffffffffffffffffffffffffffffffffffff16815260200190815260200160002060006101000a81548160ff02191690831515021790555050565b6000600160008373ffffffffffffffffffffffffffffffffffffffff1673ffffffffffffffffffffffffffffffffffffffff16815260200190815260200160002060009054906101000a900460ff169050919050565b60008054906101000a900473ffffffffffffffffffffffffffffffffffffffff1681565b600160003373ffffffffffffffffffffffffffffffffffffffff1673ffffffffffffffffffffffffffffffffffffffff16815260200190815260200160002060009054906101000a900460ff16610db5576040517f08c379a0000000000000000000000000000000000000000000000000000000008152600401610dac90611f5d565b60405180910390fd5b600082118015610dc757506003548211155b610e06576040517f08c379a0000000000000000000000000000000000000000000000000000000008152600401610dfd90612686565b60405180910390fd5b60005b6002600084815260200190815260200160002060070180549050811015610ef7578173ffffffffffffffffffffffffffffffffffffffff16600260008581526020019081526020016000206007018281548110610e6957610e686120de565b5b9060005260206000200160009054906101000a900473ffffffffffffffffffffffffffffffffffffffff1673ffffffffffffffffffffffffffffffffffffffff1603610eea576040517f08c379a0000000000000000000000000000000000000000000000000000000008152600401610ee1906126f2565b60405180910390fd5b8080600101915050610e09565b5060026000838152602001908152602001600020600701819080600181540180825580915050600190039060005260206000200160009091909190916101000a81548173ffffffffffffffffffffffffffffffffffffffff021916908373ffffffffffffffffffffffffffffffffffffffff160217905550817f83f7734d95fc3a4d03799a04b64d189f2cb486ac21a89b7448ffe0440371375282604051610f9f9190611d88565b60405180910390a25050565b60008054906101000a900473ffffffffffffffffffffffffffffffffffffffff1673ffffffffffffffffffffffffffffffffffffffff163373ffffffffffffffffffffffffffffffffffffffff1614611039576040517f08c379a00000000000000000000000000000000000000000000000000000000081526004016110309061261a565b60405180910390fd5b6000600160008373ffffffffffffffffffffffffffffffffffffffff1673ffffffffffffffffffffffffffffffffffffffff16815260200190815260200160002060006101000a81548160ff02191690831515021790555050565b60026020528060005260406000206000915090508060000160009054906101000a900473ffffffffffffffffffffffffffffffffffffffff16908060010180546110dd90611eba565b80601f016020809104026020016040519081016040528092919081815260200182805461110990611eba565b80156111565780601f1061112b57610100808354040283529160200191611156565b820191906000526020600020905b81548152906001019060200180831161113957829003601f168201915b50505050509080600201805461116b90611eba565b80601f016020809104026020016040519081016040528092919081815260200182805461119790611eba565b80156111e45780601f106111b9576101008083540402835291602001916111e4565b820191906000526020600020905b8154815290600101906020018083116111c757829003601f168201915b5050505050908060030180546111f990611eba565b80601f016020809104026020016040519081016040528092919081815260200182805461122590611eba565b80156112725780601f1061124757610100808354040283529160200191611272565b820191906000526020600020905b81548152906001019060200180831161125557829003601f168201915b50505050509080600401805461128790611eba565b80601f01602080910402602001604051908101604052809291908181526020018280546112b390611eba565b80156113005780601f106112d557610100808354040283529160200191611300565b820191906000526020600020905b8154815290600101906020018083116112e357829003601f168201915b50505050509080600501805461131590611eba565b80601f016020809104026020016040519081016040528092919081815260200182805461134190611eba565b801561138e5780601f106113635761010080835404028352916020019161138e565b820191906000526020600020905b81548152906001019060200180831161137157829003601f168201915b5050505050908060060180546113a390611eba565b80601f01602080910402602001604051908101604052809291908181526020018280546113cf90611eba565b801561141c5780601f106113f15761010080835404028352916020019161141c565b820191906000526020600020905b8154815290600101906020018083116113ff57829003601f168201915b5050505050908060080154905088565b606060008267ffffffffffffffff81111561144a57611449611877565b5b6040519080825280602002602001820160405280156114785781602001602082028036833780820191505090505b50905060005b838110156114cd57848181518110611499576114986120de565b5b60200260200101518282815181106114b4576114b36120de565b5b602002602001018181525050808060010191505061147e565b508091505092915050565b828054828255906000526020600020908101928215611551579160200282015b828111156115505782518260006101000a81548173ffffffffffffffffffffffffffffffffffffffff021916908373ffffffffffffffffffffffffffffffffffffffff160217905550916020019190600101906114f8565b5b50905061155e9190611562565b5090565b5b8082111561157b576000816000905550600101611563565b5090565b6000819050919050565b6115928161157f565b82525050565b60006020820190506115ad6000830184611589565b92915050565b6000604051905090565b600080fd5b600080fd5b6115d08161157f565b81146115db57600080fd5b50565b6000813590506115ed816115c7565b92915050565b600060208284031215611609576116086115bd565b5b6000611617848285016115de565b91505092915050565b600073ffffffffffffffffffffffffffffffffffffffff82169050919050565b600061164b82611620565b9050919050565b61165b81611640565b82525050565b600081519050919050565b600082825260208201905092915050565b60005b8381101561169b578082015181840152602081019050611680565b60008484015250505050565b6000601f19601f8301169050919050565b60006116c382611661565b6116cd818561166c565b93506116dd81856020860161167d565b6116e6816116a7565b840191505092915050565b600081519050919050565b600082825260208201905092915050565b6000819050602082019050919050565b61172681611640565b82525050565b6000611738838361171d565b60208301905092915050565b6000602082019050919050565b600061175c826116f1565b61176681856116fc565b93506117718361170d565b8060005b838110156117a2578151611789888261172c565b975061179483611744565b925050600181019050611775565b5085935050505092915050565b6000610120820190506117c5600083018c611652565b81810360208301526117d7818b6116b8565b905081810360408301526117eb818a6116b8565b905081810360608301526117ff81896116b8565b9050818103608083015261181381886116b8565b905081810360a083015261182781876116b8565b905081810360c083015261183b81866116b8565b905081810360e083015261184f8185611751565b905061185f610100830184611589565b9a9950505050505050505050565b600080fd5b600080fd5b7f4e487b7100000000000000000000000000000000000000000000000000000000600052604160045260246000fd5b6118af826116a7565b810181811067ffffffffffffffff821117156118ce576118cd611877565b5b80604052505050565b60006118e16115b3565b90506118ed82826118a6565b919050565b600067ffffffffffffffff82111561190d5761190c611877565b5b611916826116a7565b9050602081019050919050565b82818337600083830152505050565b6000611945611940846118f2565b6118d7565b90508281526020810184848401111561196157611960611872565b5b61196c848285611923565b509392505050565b600082601f8301126119895761198861186d565b5b8135611999848260208601611932565b91505092915050565b600067ffffffffffffffff8211156119bd576119bc611877565b5b602082029050602081019050919050565b600080fd5b6119dc81611640565b81146119e757600080fd5b50565b6000813590506119f9816119d3565b92915050565b6000611a12611a0d846119a2565b6118d7565b90508083825260208201905060208402830185811115611a3557611a346119ce565b5b835b81811015611a5e5780611a4a88826119ea565b845260208401935050602081019050611a37565b5050509392505050565b600082601f830112611a7d57611a7c61186d565b5b8135611a8d8482602086016119ff565b91505092915050565b600080600080600080600060e0888a031215611ab557611ab46115bd565b5b600088013567ffffffffffffffff811115611ad357611ad26115c2565b5b611adf8a828b01611974565b975050602088013567ffffffffffffffff811115611b0057611aff6115c2565b5b611b0c8a828b01611974565b965050604088013567ffffffffffffffff811115611b2d57611b2c6115c2565b5b611b398a828b01611974565b955050606088013567ffffffffffffffff811115611b5a57611b596115c2565b5b611b668a828b01611974565b945050608088013567ffffffffffffffff811115611b8757611b866115c2565b5b611b938a828b01611974565b93505060a088013567ffffffffffffffff811115611bb457611bb36115c2565b5b611bc08a828b01611974565b92505060c088013567ffffffffffffffff811115611be157611be06115c2565b5b611bed8a828b01611a68565b91505092959891949750929550565b600060208284031215611c1257611c116115bd565b5b600082013567ffffffffffffffff811115611c3057611c2f6115c2565b5b611c3c84828501611974565b91505092915050565b600081519050919050565b600082825260208201905092915050565b6000819050602082019050919050565b611c7a8161157f565b82525050565b6000611c8c8383611c71565b60208301905092915050565b6000602082019050919050565b6000611cb082611c45565b611cba8185611c50565b9350611cc583611c61565b8060005b83811015611cf6578151611cdd8882611c80565b9750611ce883611c98565b925050600181019050611cc9565b5085935050505092915050565b60006020820190508181036000830152611d1d8184611ca5565b905092915050565b600060208284031215611d3b57611d3a6115bd565b5b6000611d49848285016119ea565b91505092915050565b60008115159050919050565b611d6781611d52565b82525050565b6000602082019050611d826000830184611d5e565b92915050565b6000602082019050611d9d6000830184611652565b92915050565b60008060408385031215611dba57611db96115bd565b5b6000611dc8858286016115de565b9250506020611dd9858286016119ea565b9150509250929050565b600061010082019050611df9600083018b611652565b8181036020830152611e0b818a6116b8565b90508181036040830152611e1f81896116b8565b90508181036060830152611e3381886116b8565b90508181036080830152611e4781876116b8565b905081810360a0830152611e5b81866116b8565b905081810360c0830152611e6f81856116b8565b9050611e7e60e0830184611589565b9998505050505050505050565b7f4e487b7100000000000000000000000000000000000000000000000000000000600052602260045260246000fd5b60006002820490506001821680611ed257607f821691505b602082108103611ee557611ee4611e8b565b5b50919050565b7f4f6e6c7920636f757274206f6666696369616c732063616e2075706c6f61642060008201527f66696c6573000000000000000000000000000000000000000000000000000000602082015250565b6000611f4760258361166c565b9150611f5282611eeb565b604082019050919050565b60006020820190508181036000830152611f7681611f3a565b9050919050565b7f4950465320686173682069732072657175697265640000000000000000000000600082015250565b6000611fb360158361166c565b9150611fbe82611f7d565b602082019050919050565b60006020820190508181036000830152611fe281611fa6565b9050919050565b7f4174206c65617374206f6e6520636c69656e74206d757374206265206c696e6b60008201527f6564000000000000000000000000000000000000000000000000000000000000602082015250565b600061204560228361166c565b915061205082611fe9565b604082019050919050565b6000602082019050818103600083015261207481612038565b9050919050565b7f4e487b7100000000000000000000000000000000000000000000000000000000600052601160045260246000fd5b60006120b58261157f565b91506120c08361157f565b92508282019050808211156120d8576120d761207b565b5b92915050565b7f4e487b7100000000000000000000000000000000000000000000000000000000600052603260045260246000fd5b7f436c69656e7420616464726573736573206d75737420626520756e6971756500600082015250565b6000612143601f8361166c565b915061214e8261210d565b602082019050919050565b6000602082019050818103600083015261217281612136565b9050919050565b60006121848261157f565b91507fffffffffffffffffffffffffffffffffffffffffffffffffffffffffffffffff82036121b6576121b561207b565b5b600182019050919050565b60008190508160005260206000209050919050565b60006020601f8301049050919050565b600082821b905092915050565b6000600883026122237fffffffffffffffffffffffffffffffffffffffffffffffffffffffffffffffff826121e6565b61222d86836121e6565b95508019841693508086168417925050509392505050565b6000819050919050565b600061226a6122656122608461157f565b612245565b61157f565b9050919050565b6000819050919050565b6122848361224f565b61229861229082612271565b8484546121f3565b825550505050565b600090565b6122ad6122a0565b6122b881848461227b565b505050565b5b818110156122dc576122d16000826122a5565b6001810190506122be565b5050565b601f821115612321576122f2816121c1565b6122fb846121d6565b8101602085101561230a578190505b61231e612316856121d6565b8301826122bd565b50505b505050565b600082821c905092915050565b600061234460001984600802612326565b1980831691505092915050565b600061235d8383612333565b9150826002028217905092915050565b61237682611661565b67ffffffffffffffff81111561238f5761238e611877565b5b6123998254611eba565b6123a48282856122e0565b600060209050601f8311600181146123d757600084156123c5578287015190505b6123cf8582612351565b865550612437565b601f1984166123e5866121c1565b60005b8281101561240d578489015182556001820191506020850194506020810190506123e8565b8683101561242a5784890151612426601f891682612333565b8355505b6001600288020188555050505b505050505050565b600061010082019050818103600083015261245a818b6116b8565b9050818103602083015261246e818a6116b8565b9050818103604083015261248281896116b8565b9050818103606083015261249681886116b8565b905081810360808301526124aa81876116b8565b905081810360a08301526124be81866116b8565b90506124cd60c0830185611589565b81810360e08301526124df8184611751565b90509998505050505050505050565b600081905092915050565b60008190508160005260206000209050919050565b6000815461251b81611eba565b61252581866124ee565b94506001821660008114612540576001811461255557612588565b60ff1983168652811515820286019350612588565b61255e856124f9565b60005b8381101561258057815481890152600182019150602081019050612561565b838801955050505b50505092915050565b600061259d828461250e565b915081905092915050565b7f4f6e6c7920746865206f776e65722063616e20706572666f726d20746869732060008201527f616374696f6e0000000000000000000000000000000000000000000000000000602082015250565b600061260460268361166c565b915061260f826125a8565b604082019050919050565b60006020820190508181036000830152612633816125f7565b9050919050565b7f496e76616c69642066696c652049440000000000000000000000000000000000600082015250565b6000612670600f8361166c565b915061267b8261263a565b602082019050919050565b6000602082019050818103600083015261269f81612663565b9050919050565b7f436c69656e7420616c7265616479206c696e6b65640000000000000000000000600082015250565b60006126dc60158361166c565b91506126e7826126a6565b602082019050919050565b6000602082019050818103600083015261270b816126cf565b905091905056fea26469706673582212200da9b0d796cb2f08f20b360fdf5c34c4b7d91f3dddeb08de618d193219d73d9d64736f6c63430008180033",
  "linkReferences": {},
  "deployedLinkReferences": {}
}