{
  "_format": "hh-sol-artifact-1",
  "contractName": "NavinEvault",
  "sourceName": "contracts/NavinEvault.sol",
  "abi": [
    {
      "inputs": [],
      "stateMutability": "nonpayable",
      "type": "constructor"
    },
    {
      "anonymous": false,
      "inputs": [
        {
          "indexed": true,
          "internalType": "uint256",
          "name": "fileId",
          "type": "uint256"
        },
        {
          "indexed": false,
          "internalType": "address",
          "name": "client",
          "type": "address"
        }
      ],
      "name": "ClientLinked",
      "type": "event"
    },
    {
      "anonymous": false,
      "inputs": [
        {
          "indexed": true,
          "internalType": "uint256",
          "name": "fileId",
          "type": "uint256"
        },
        {
          "indexed": false,
          "internalType": "address",
          "name": "courtOfficial",
          "type": "address"
        }
      ],
      "name": "CourtOfficialLinked",
      "type": "event"
    },
    {
      "anonymous": false,
      "inputs": [
        {
          "indexed": true,
          "internalType": "uint256",
          "name": "fileId",
          "type": "uint256"
        },
        {
          "indexed": false,
          "internalType": "address",
          "name": "newCourtOfficial",
          "type": "address"
        }
      ],
      "name": "CourtOfficialReplaced",
      "type": "event"
    },
    {
      "anonymous": false,
      "inputs": [
        {
          "indexed": true,
          "internalType": "address",
          "name": "uploader",
          "type": "address"
        },
        {
          "indexed": true,
          "internalType": "uint256",
          "name": "fileId",
          "type": "uint256"
        },
        {
          "indexed": false,
          "internalType": "string",
          "name": "ipfsHash",
          "type": "string"
        },
        {
          "indexed": false,
          "internalType": "string",
          "name": "title",
          "type": "string"
        },
        {
          "indexed": false,
          "internalType": "string",
          "name": "dateOfJudgment",
          "type": "string"
        },
        {
          "indexed": false,
          "internalType": "string",
          "name": "caseNumber",
          "type": "string"
        },
        {
          "indexed": false,
          "internalType": "string",
          "name": "category",
          "type": "string"
        },
        {
          "indexed": false,
          "internalType": "string",
          "name": "judgeName",
          "type": "string"
        },
        {
          "indexed": false,
          "internalType": "uint256",
          "name": "timestamp",
          "type": "uint256"
        },
        {
          "indexed": false,
          "internalType": "address[]",
          "name": "linkedClients",
          "type": "address[]"
        },
        {
          "indexed": false,
          "internalType": "address",
          "name": "linkedCourtOfficial",
          "type": "address"
        }
      ],
      "name": "FileUploaded",
      "type": "event"
    },
    {
      "inputs": [
        {
          "internalType": "address",
          "name": "_client",
          "type": "address"
        }
      ],
      "name": "addClient",
      "outputs": [],
      "stateMutability": "nonpayable",
      "type": "function"
    },
    {
      "inputs": [
        {
          "internalType": "address",
          "name": "_official",
          "type": "address"
        }
      ],
      "name": "addCourtOfficial",
      "outputs": [],
      "stateMutability": "nonpayable",
      "type": "function"
    },
    {
      "inputs": [
        {
          "internalType": "uint256",
          "name": "",
          "type": "uint256"
        }
      ],
      "name": "caseFiles",
      "outputs": [
        {
          "internalType": "address",
          "name": "uploader",
          "type": "address"
        },
        {
          "internalType": "string",
          "name": "ipfsHash",
          "type": "string"
        },
        {
          "internalType": "string",
          "name": "title",
          "type": "string"
        },
        {
          "internalType": "string",
          "name": "dateOfJudgment",
          "type": "string"
        },
        {
          "internalType": "string",
          "name": "caseNumber",
          "type": "string"
        },
        {
          "internalType": "string",
          "name": "category",
          "type": "string"
        },
        {
          "internalType": "string",
          "name": "judgeName",
          "type": "string"
        },
        {
          "internalType": "uint256",
          "name": "timestamp",
          "type": "uint256"
        },
        {
          "internalType": "address",
          "name": "linkedCourtOfficial",
          "type": "address"
        }
      ],
      "stateMutability": "view",
      "type": "function"
    },
    {
      "inputs": [
        {
          "internalType": "uint256",
          "name": "_fileId",
          "type": "uint256"
        }
      ],
      "name": "getFile",
      "outputs": [
        {
          "internalType": "address",
          "name": "uploader",
          "type": "address"
        },
        {
          "internalType": "string",
          "name": "ipfsHash",
          "type": "string"
        },
        {
          "internalType": "string",
          "name": "title",
          "type": "string"
        },
        {
          "internalType": "string",
          "name": "dateOfJudgment",
          "type": "string"
        },
        {
          "internalType": "string",
          "name": "caseNumber",
          "type": "string"
        },
        {
          "internalType": "string",
          "name": "category",
          "type": "string"
        },
        {
          "internalType": "string",
          "name": "judgeName",
          "type": "string"
        },
        {
          "internalType": "address[]",
          "name": "linkedClients",
          "type": "address[]"
        },
        {
          "internalType": "uint256",
          "name": "timestamp",
          "type": "uint256"
        },
        {
          "internalType": "address",
          "name": "linkedCourtOfficial",
          "type": "address"
        }
      ],
      "stateMutability": "view",
      "type": "function"
    },
    {
      "inputs": [
        {
          "internalType": "address",
          "name": "_client",
          "type": "address"
        }
      ],
      "name": "isClient",
      "outputs": [
        {
          "internalType": "bool",
          "name": "",
          "type": "bool"
        }
      ],
      "stateMutability": "view",
      "type": "function"
    },
    {
      "inputs": [
        {
          "internalType": "address",
          "name": "_official",
          "type": "address"
        }
      ],
      "name": "isCourtOfficial",
      "outputs": [
        {
          "internalType": "bool",
          "name": "",
          "type": "bool"
        }
      ],
      "stateMutability": "view",
      "type": "function"
    },
    {
      "inputs": [
        {
          "internalType": "uint256",
          "name": "_fileId",
          "type": "uint256"
        },
        {
          "internalType": "address[]",
          "name": "_clients",
          "type": "address[]"
        }
      ],
      "name": "linkClients",
      "outputs": [],
      "stateMutability": "nonpayable",
      "type": "function"
    },
    {
      "inputs": [],
      "name": "owner",
      "outputs": [
        {
          "internalType": "address",
          "name": "",
          "type": "address"
        }
      ],
      "stateMutability": "view",
      "type": "function"
    },
    {
      "inputs": [
        {
          "internalType": "address",
          "name": "_client",
          "type": "address"
        }
      ],
      "name": "removeClient",
      "outputs": [],
      "stateMutability": "nonpayable",
      "type": "function"
    },
    {
      "inputs": [
        {
          "internalType": "address",
          "name": "_official",
          "type": "address"
        }
      ],
      "name": "removeCourtOfficial",
      "outputs": [],
      "stateMutability": "nonpayable",
      "type": "function"
    },
    {
      "inputs": [
        {
          "internalType": "uint256",
          "name": "_fileId",
          "type": "uint256"
        },
        {
          "internalType": "address",
          "name": "_newCourtOfficial",
          "type": "address"
        }
      ],
      "name": "replaceCourtOfficial",
      "outputs": [],
      "stateMutability": "nonpayable",
      "type": "function"
    },
    {
      "inputs": [
        {
          "internalType": "string",
          "name": "_title",
          "type": "string"
        }
      ],
      "name": "searchByTitle",
      "outputs": [
        {
          "components": [
            {
              "internalType": "address",
              "name": "uploader",
              "type": "address"
            },
            {
              "internalType": "string",
              "name": "ipfsHash",
              "type": "string"
            },
            {
              "internalType": "string",
              "name": "title",
              "type": "string"
            },
            {
              "internalType": "string",
              "name": "dateOfJudgment",
              "type": "string"
            },
            {
              "internalType": "string",
              "name": "caseNumber",
              "type": "string"
            },
            {
              "internalType": "string",
              "name": "category",
              "type": "string"
            },
            {
              "internalType": "string",
              "name": "judgeName",
              "type": "string"
            },
            {
              "internalType": "address[]",
              "name": "linkedClients",
              "type": "address[]"
            },
            {
              "internalType": "uint256",
              "name": "timestamp",
              "type": "uint256"
            },
            {
              "internalType": "address",
              "name": "linkedCourtOfficial",
              "type": "address"
            }
          ],
          "internalType": "struct NavinEvault.CaseFile[]",
          "name": "",
          "type": "tuple[]"
        }
      ],
      "stateMutability": "view",
      "type": "function"
    },
    {
      "inputs": [],
      "name": "totalCaseFiles",
      "outputs": [
        {
          "internalType": "uint256",
          "name": "",
          "type": "uint256"
        }
      ],
      "stateMutability": "view",
      "type": "function"
    },
    {
      "inputs": [
        {
          "internalType": "string",
          "name": "_ipfsHash",
          "type": "string"
        },
        {
          "internalType": "string",
          "name": "_title",
          "type": "string"
        },
        {
          "internalType": "string",
          "name": "_dateOfJudgment",
          "type": "string"
        },
        {
          "internalType": "string",
          "name": "_caseNumber",
          "type": "string"
        },
        {
          "internalType": "string",
          "name": "_category",
          "type": "string"
        },
        {
          "internalType": "string",
          "name": "_judgeName",
          "type": "string"
        },
        {
          "internalType": "address[]",
          "name": "_linkedClients",
          "type": "address[]"
        }
      ],
      "name": "uploadFile",
      "outputs": [],
      "stateMutability": "nonpayable",
      "type": "function"
    }
  ],
  "bytecode": "0x608060405234801561001057600080fd5b50336000806101000a81548173ffffffffffffffffffffffffffffffffffffffff021916908373ffffffffffffffffffffffffffffffffffffffff160217905550613a31806100606000396000f3fe608060405234801561001057600080fd5b50600436106100ea5760003560e01c80637babb1a91161008c5780638da5cb5b116100665780638da5cb5b146102625780639089f61614610280578063a3373a891461029c578063fbebf5df146102b8576100ea565b80637babb1a9146101e657806384b7964f1461020257806387fddb3214610232576100ea565b806343928cfd116100c857806343928cfd14610162578063523dd93e1461017e5780635bab3ba11461019a5780636a33727c146101ca576100ea565b80631bc9d8a4146100ef5780632861df841461010d5780632bfda31314610129575b600080fd5b6100f76102f0565b60405161010491906123bb565b60405180910390f35b61012760048036038101906101229190612474565b6102f6565b005b610143600480360381019061013e91906124b4565b61050b565b6040516101599a9998979695949392919061263e565b60405180910390f35b61017c6004803603810190610177919061270b565b610ad1565b005b61019860048036038101906101939190612935565b610bba565b005b6101b460048036038101906101af9190612a9b565b611067565b6040516101c19190612d72565b60405180910390f35b6101e460048036038101906101df919061270b565b6117bf565b005b61020060048036038101906101fb9190612d94565b6118a7565b005b61021c6004803603810190610217919061270b565b611c1c565b6040516102299190612e0b565b60405180910390f35b61024c6004803603810190610247919061270b565b611c72565b6040516102599190612e0b565b60405180910390f35b61026a611cc8565b6040516102779190612e26565b60405180910390f35b61029a6004803603810190610295919061270b565b611cec565b005b6102b660048036038101906102b1919061270b565b611dd5565b005b6102d260048036038101906102cd91906124b4565b611ebe565b6040516102e799989796959493929190612e41565b60405180910390f35b60055481565b600160003373ffffffffffffffffffffffffffffffffffffffff1673ffffffffffffffffffffffffffffffffffffffff16815260200190815260200160002060009054906101000a900460ff16806103af57503373ffffffffffffffffffffffffffffffffffffffff166003600084815260200190815260200160002060090160009054906101000a900473ffffffffffffffffffffffffffffffffffffffff1673ffffffffffffffffffffffffffffffffffffffff16145b6103ee576040517f08c379a00000000000000000000000000000000000000000000000000000000081526004016103e590612f6a565b60405180910390fd5b600160008273ffffffffffffffffffffffffffffffffffffffff1673ffffffffffffffffffffffffffffffffffffffff16815260200190815260200160002060009054906101000a900460ff1661047a576040517f08c379a000000000000000000000000000000000000000000000000000000000815260040161047190612fd6565b60405180910390fd5b806003600084815260200190815260200160002060090160006101000a81548173ffffffffffffffffffffffffffffffffffffffff021916908373ffffffffffffffffffffffffffffffffffffffff160217905550817fe649e9026005bfc17e8315cf1626c76534d8f1035d1f52c0f112ebd2dcc888cc826040516104ff9190612e26565b60405180910390a25050565b6000606080606080606080606060008060008b11801561052d57506005548b11155b61056c576040517f08c379a000000000000000000000000000000000000000000000000000000000815260040161056390613042565b60405180910390fd5b600160003373ffffffffffffffffffffffffffffffffffffffff1673ffffffffffffffffffffffffffffffffffffffff16815260200190815260200160002060009054906101000a900460ff168061061e5750600460008c815260200190815260200160002060003373ffffffffffffffffffffffffffffffffffffffff1673ffffffffffffffffffffffffffffffffffffffff16815260200190815260200160002060009054906101000a900460ff165b61065d576040517f08c379a0000000000000000000000000000000000000000000000000000000008152600401610654906130d4565b60405180910390fd5b6000600360008d815260200190815260200160002090508060000160009054906101000a900473ffffffffffffffffffffffffffffffffffffffff168160010182600201836003018460040185600501866006018760070188600801548960090160009054906101000a900473ffffffffffffffffffffffffffffffffffffffff168880546106eb90613123565b80601f016020809104026020016040519081016040528092919081815260200182805461071790613123565b80156107645780601f1061073957610100808354040283529160200191610764565b820191906000526020600020905b81548152906001019060200180831161074757829003601f168201915b5050505050985087805461077790613123565b80601f01602080910402602001604051908101604052809291908181526020018280546107a390613123565b80156107f05780601f106107c5576101008083540402835291602001916107f0565b820191906000526020600020905b8154815290600101906020018083116107d357829003601f168201915b5050505050975086805461080390613123565b80601f016020809104026020016040519081016040528092919081815260200182805461082f90613123565b801561087c5780601f106108515761010080835404028352916020019161087c565b820191906000526020600020905b81548152906001019060200180831161085f57829003601f168201915b5050505050965085805461088f90613123565b80601f01602080910402602001604051908101604052809291908181526020018280546108bb90613123565b80156109085780601f106108dd57610100808354040283529160200191610908565b820191906000526020600020905b8154815290600101906020018083116108eb57829003601f168201915b5050505050955084805461091b90613123565b80601f016020809104026020016040519081016040528092919081815260200182805461094790613123565b80156109945780601f1061096957610100808354040283529160200191610994565b820191906000526020600020905b81548152906001019060200180831161097757829003601f168201915b505050505094508380546109a790613123565b80601f01602080910402602001604051908101604052809291908181526020018280546109d390613123565b8015610a205780601f106109f557610100808354040283529160200191610a20565b820191906000526020600020905b815481529060010190602001808311610a0357829003601f168201915b5050505050935082805480602002602001604051908101604052809291908181526020018280548015610aa857602002820191906000526020600020905b8160009054906101000a900473ffffffffffffffffffffffffffffffffffffffff1673ffffffffffffffffffffffffffffffffffffffff1681526020019060010190808311610a5e575b505050505092509a509a509a509a509a509a509a509a509a509a50509193959799509193959799565b60008054906101000a900473ffffffffffffffffffffffffffffffffffffffff1673ffffffffffffffffffffffffffffffffffffffff163373ffffffffffffffffffffffffffffffffffffffff1614610b5f576040517f08c379a0000000000000000000000000000000000000000000000000000000008152600401610b56906131c6565b60405180910390fd5b6001600260008373ffffffffffffffffffffffffffffffffffffffff1673ffffffffffffffffffffffffffffffffffffffff16815260200190815260200160002060006101000a81548160ff02191690831515021790555050565b600160003373ffffffffffffffffffffffffffffffffffffffff1673ffffffffffffffffffffffffffffffffffffffff16815260200190815260200160002060009054906101000a900460ff1680610c5b5750600260003373ffffffffffffffffffffffffffffffffffffffff1673ffffffffffffffffffffffffffffffffffffffff16815260200190815260200160002060009054906101000a900460ff165b610c9a576040517f08c379a0000000000000000000000000000000000000000000000000000000008152600401610c9190613258565b60405180910390fd5b6000875111610cde576040517f08c379a0000000000000000000000000000000000000000000000000000000008152600401610cd5906132c4565b60405180910390fd5b6000815111610d22576040517f08c379a0000000000000000000000000000000000000000000000000000000008152600401610d1990613356565b60405180910390fd5b60056000815480929190610d35906133a5565b91905055506000600160003373ffffffffffffffffffffffffffffffffffffffff1673ffffffffffffffffffffffffffffffffffffffff16815260200190815260200160002060009054906101000a900460ff16610d94576000610d96565b335b90506040518061014001604052803373ffffffffffffffffffffffffffffffffffffffff1681526020018981526020018881526020018781526020018681526020018581526020018481526020018381526020014281526020018273ffffffffffffffffffffffffffffffffffffffff1681525060036000600554815260200190815260200160002060008201518160000160006101000a81548173ffffffffffffffffffffffffffffffffffffffff021916908373ffffffffffffffffffffffffffffffffffffffff1602179055506020820151816001019081610e7b9190613599565b506040820151816002019081610e919190613599565b506060820151816003019081610ea79190613599565b506080820151816004019081610ebd9190613599565b5060a0820151816005019081610ed39190613599565b5060c0820151816006019081610ee99190613599565b5060e0820151816007019080519060200190610f0692919061227c565b5061010082015181600801556101208201518160090160006101000a81548173ffffffffffffffffffffffffffffffffffffffff021916908373ffffffffffffffffffffffffffffffffffffffff16021790555090505060005b8251811015610ffb5760016004600060055481526020019081526020016000206000858481518110610f9557610f9461366b565b5b602002602001015173ffffffffffffffffffffffffffffffffffffffff1673ffffffffffffffffffffffffffffffffffffffff16815260200190815260200160002060006101000a81548160ff0219169083151502179055508080600101915050610f60565b506005543373ffffffffffffffffffffffffffffffffffffffff167fa430660657456346ed697fb4b1a3cb8941f0b56d1189a165143bd07540a00abf8a8a8a8a8a8a428b8b6040516110559998979695949392919061369a565b60405180910390a35050505050505050565b6060600080600190505b600554811161116b578360405160200161108b9190613794565b60405160208183030381529060405280519060200120600360008381526020019081526020016000206002016040516020016110c7919061382e565b6040516020818303038152906040528051906020012014801561114457506004600082815260200190815260200160002060003373ffffffffffffffffffffffffffffffffffffffff1673ffffffffffffffffffffffffffffffffffffffff16815260200190815260200160002060009054906101000a900460ff165b15611158578180611154906133a5565b9250505b8080611163906133a5565b915050611071565b5060008167ffffffffffffffff81111561118857611187612742565b5b6040519080825280602002602001820160405280156111c157816020015b6111ae612306565b8152602001906001900390816111a65790505b509050600080600190505b60055481116117b357856040516020016111e69190613794565b6040516020818303038152906040528051906020012060036000838152602001908152602001600020600201604051602001611222919061382e565b6040516020818303038152906040528051906020012014801561129f57506004600082815260200190815260200160002060003373ffffffffffffffffffffffffffffffffffffffff1673ffffffffffffffffffffffffffffffffffffffff16815260200190815260200160002060009054906101000a900460ff165b156117a05760036000828152602001908152602001600020604051806101400160405290816000820160009054906101000a900473ffffffffffffffffffffffffffffffffffffffff1673ffffffffffffffffffffffffffffffffffffffff1673ffffffffffffffffffffffffffffffffffffffff16815260200160018201805461132990613123565b80601f016020809104026020016040519081016040528092919081815260200182805461135590613123565b80156113a25780601f10611377576101008083540402835291602001916113a2565b820191906000526020600020905b81548152906001019060200180831161138557829003601f168201915b505050505081526020016002820180546113bb90613123565b80601f01602080910402602001604051908101604052809291908181526020018280546113e790613123565b80156114345780601f1061140957610100808354040283529160200191611434565b820191906000526020600020905b81548152906001019060200180831161141757829003601f168201915b5050505050815260200160038201805461144d90613123565b80601f016020809104026020016040519081016040528092919081815260200182805461147990613123565b80156114c65780601f1061149b576101008083540402835291602001916114c6565b820191906000526020600020905b8154815290600101906020018083116114a957829003601f168201915b505050505081526020016004820180546114df90613123565b80601f016020809104026020016040519081016040528092919081815260200182805461150b90613123565b80156115585780601f1061152d57610100808354040283529160200191611558565b820191906000526020600020905b81548152906001019060200180831161153b57829003601f168201915b5050505050815260200160058201805461157190613123565b80601f016020809104026020016040519081016040528092919081815260200182805461159d90613123565b80156115ea5780601f106115bf576101008083540402835291602001916115ea565b820191906000526020600020905b8154815290600101906020018083116115cd57829003601f168201915b5050505050815260200160068201805461160390613123565b80601f016020809104026020016040519081016040528092919081815260200182805461162f90613123565b801561167c5780601f106116515761010080835404028352916020019161167c565b820191906000526020600020905b81548152906001019060200180831161165f57829003601f168201915b505050505081526020016007820180548060200260200160405190810160405280929190818152602001828054801561170a57602002820191906000526020600020905b8160009054906101000a900473ffffffffffffffffffffffffffffffffffffffff1673ffffffffffffffffffffffffffffffffffffffff16815260200190600101908083116116c0575b50505050508152602001600882015481526020016009820160009054906101000a900473ffffffffffffffffffffffffffffffffffffffff1673ffffffffffffffffffffffffffffffffffffffff1673ffffffffffffffffffffffffffffffffffffffff16815250508383815181106117865761178561366b565b5b6020026020010181905250818061179c906133a5565b9250505b80806117ab906133a5565b9150506111cc565b50819350505050919050565b60008054906101000a900473ffffffffffffffffffffffffffffffffffffffff1673ffffffffffffffffffffffffffffffffffffffff163373ffffffffffffffffffffffffffffffffffffffff161461184d576040517f08c379a0000000000000000000000000000000000000000000000000000000008152600401611844906131c6565b60405180910390fd5b60018060008373ffffffffffffffffffffffffffffffffffffffff1673ffffffffffffffffffffffffffffffffffffffff16815260200190815260200160002060006101000a81548160ff02191690831515021790555050565b600160003373ffffffffffffffffffffffffffffffffffffffff1673ffffffffffffffffffffffffffffffffffffffff16815260200190815260200160002060009054906101000a900460ff16611933576040517f08c379a000000000000000000000000000000000000000000000000000000000815260040161192a906138b7565b60405180910390fd5b60008211801561194557506005548211155b611984576040517f08c379a000000000000000000000000000000000000000000000000000000000815260040161197b90613042565b60405180910390fd5b3373ffffffffffffffffffffffffffffffffffffffff166003600084815260200190815260200160002060090160009054906101000a900473ffffffffffffffffffffffffffffffffffffffff1673ffffffffffffffffffffffffffffffffffffffff1614611a28576040517f08c379a0000000000000000000000000000000000000000000000000000000008152600401611a1f90613949565b60405180910390fd5b60005b8151811015611c17576000828281518110611a4957611a4861366b565b5b602002602001015190506004600085815260200190815260200160002060008273ffffffffffffffffffffffffffffffffffffffff1673ffffffffffffffffffffffffffffffffffffffff16815260200190815260200160002060009054906101000a900460ff1615611af1576040517f08c379a0000000000000000000000000000000000000000000000000000000008152600401611ae8906139db565b60405180910390fd5b60016004600086815260200190815260200160002060008373ffffffffffffffffffffffffffffffffffffffff1673ffffffffffffffffffffffffffffffffffffffff16815260200190815260200160002060006101000a81548160ff02191690831515021790555060036000858152602001908152602001600020600701819080600181540180825580915050600190039060005260206000200160009091909190916101000a81548173ffffffffffffffffffffffffffffffffffffffff021916908373ffffffffffffffffffffffffffffffffffffffff160217905550837f83f7734d95fc3a4d03799a04b64d189f2cb486ac21a89b7448ffe0440371375282604051611c019190612e26565b60405180910390a2508080600101915050611a2b565b505050565b6000600260008373ffffffffffffffffffffffffffffffffffffffff1673ffffffffffffffffffffffffffffffffffffffff16815260200190815260200160002060009054906101000a900460ff169050919050565b6000600160008373ffffffffffffffffffffffffffffffffffffffff1673ffffffffffffffffffffffffffffffffffffffff16815260200190815260200160002060009054906101000a900460ff169050919050565b60008054906101000a900473ffffffffffffffffffffffffffffffffffffffff1681565b60008054906101000a900473ffffffffffffffffffffffffffffffffffffffff1673ffffffffffffffffffffffffffffffffffffffff163373ffffffffffffffffffffffffffffffffffffffff1614611d7a576040517f08c379a0000000000000000000000000000000000000000000000000000000008152600401611d71906131c6565b60405180910390fd5b6000600260008373ffffffffffffffffffffffffffffffffffffffff1673ffffffffffffffffffffffffffffffffffffffff16815260200190815260200160002060006101000a81548160ff02191690831515021790555050565b60008054906101000a900473ffffffffffffffffffffffffffffffffffffffff1673ffffffffffffffffffffffffffffffffffffffff163373ffffffffffffffffffffffffffffffffffffffff1614611e63576040517f08c379a0000000000000000000000000000000000000000000000000000000008152600401611e5a906131c6565b60405180910390fd5b6000600160008373ffffffffffffffffffffffffffffffffffffffff1673ffffffffffffffffffffffffffffffffffffffff16815260200190815260200160002060006101000a81548160ff02191690831515021790555050565b60036020528060005260406000206000915090508060000160009054906101000a900473ffffffffffffffffffffffffffffffffffffffff1690806001018054611f0790613123565b80601f0160208091040260200160405190810160405280929190818152602001828054611f3390613123565b8015611f805780601f10611f5557610100808354040283529160200191611f80565b820191906000526020600020905b815481529060010190602001808311611f6357829003601f168201915b505050505090806002018054611f9590613123565b80601f0160208091040260200160405190810160405280929190818152602001828054611fc190613123565b801561200e5780601f10611fe35761010080835404028352916020019161200e565b820191906000526020600020905b815481529060010190602001808311611ff157829003601f168201915b50505050509080600301805461202390613123565b80601f016020809104026020016040519081016040528092919081815260200182805461204f90613123565b801561209c5780601f106120715761010080835404028352916020019161209c565b820191906000526020600020905b81548152906001019060200180831161207f57829003601f168201915b5050505050908060040180546120b190613123565b80601f01602080910402602001604051908101604052809291908181526020018280546120dd90613123565b801561212a5780601f106120ff5761010080835404028352916020019161212a565b820191906000526020600020905b81548152906001019060200180831161210d57829003601f168201915b50505050509080600501805461213f90613123565b80601f016020809104026020016040519081016040528092919081815260200182805461216b90613123565b80156121b85780601f1061218d576101008083540402835291602001916121b8565b820191906000526020600020905b81548152906001019060200180831161219b57829003601f168201915b5050505050908060060180546121cd90613123565b80601f01602080910402602001604051908101604052809291908181526020018280546121f990613123565b80156122465780601f1061221b57610100808354040283529160200191612246565b820191906000526020600020905b81548152906001019060200180831161222957829003601f168201915b5050505050908060080154908060090160009054906101000a900473ffffffffffffffffffffffffffffffffffffffff16905089565b8280548282559060005260206000209081019282156122f5579160200282015b828111156122f45782518260006101000a81548173ffffffffffffffffffffffffffffffffffffffff021916908373ffffffffffffffffffffffffffffffffffffffff1602179055509160200191906001019061229c565b5b5090506123029190612385565b5090565b604051806101400160405280600073ffffffffffffffffffffffffffffffffffffffff1681526020016060815260200160608152602001606081526020016060815260200160608152602001606081526020016060815260200160008152602001600073ffffffffffffffffffffffffffffffffffffffff1681525090565b5b8082111561239e576000816000905550600101612386565b5090565b6000819050919050565b6123b5816123a2565b82525050565b60006020820190506123d060008301846123ac565b92915050565b6000604051905090565b600080fd5b600080fd5b6123f3816123a2565b81146123fe57600080fd5b50565b600081359050612410816123ea565b92915050565b600073ffffffffffffffffffffffffffffffffffffffff82169050919050565b600061244182612416565b9050919050565b61245181612436565b811461245c57600080fd5b50565b60008135905061246e81612448565b92915050565b6000806040838503121561248b5761248a6123e0565b5b600061249985828601612401565b92505060206124aa8582860161245f565b9150509250929050565b6000602082840312156124ca576124c96123e0565b5b60006124d884828501612401565b91505092915050565b6124ea81612436565b82525050565b600081519050919050565b600082825260208201905092915050565b60005b8381101561252a57808201518184015260208101905061250f565b60008484015250505050565b6000601f19601f8301169050919050565b6000612552826124f0565b61255c81856124fb565b935061256c81856020860161250c565b61257581612536565b840191505092915050565b600081519050919050565b600082825260208201905092915050565b6000819050602082019050919050565b6125b581612436565b82525050565b60006125c783836125ac565b60208301905092915050565b6000602082019050919050565b60006125eb82612580565b6125f5818561258b565b93506126008361259c565b8060005b8381101561263157815161261888826125bb565b9750612623836125d3565b925050600181019050612604565b5085935050505092915050565b600061014082019050612654600083018d6124e1565b8181036020830152612666818c612547565b9050818103604083015261267a818b612547565b9050818103606083015261268e818a612547565b905081810360808301526126a28189612547565b905081810360a08301526126b68188612547565b905081810360c08301526126ca8187612547565b905081810360e08301526126de81866125e0565b90506126ee6101008301856123ac565b6126fc6101208301846124e1565b9b9a5050505050505050505050565b600060208284031215612721576127206123e0565b5b600061272f8482850161245f565b91505092915050565b600080fd5b600080fd5b7f4e487b7100000000000000000000000000000000000000000000000000000000600052604160045260246000fd5b61277a82612536565b810181811067ffffffffffffffff8211171561279957612798612742565b5b80604052505050565b60006127ac6123d6565b90506127b88282612771565b919050565b600067ffffffffffffffff8211156127d8576127d7612742565b5b6127e182612536565b9050602081019050919050565b82818337600083830152505050565b600061281061280b846127bd565b6127a2565b90508281526020810184848401111561282c5761282b61273d565b5b6128378482856127ee565b509392505050565b600082601f83011261285457612853612738565b5b81356128648482602086016127fd565b91505092915050565b600067ffffffffffffffff82111561288857612887612742565b5b602082029050602081019050919050565b600080fd5b60006128b16128ac8461286d565b6127a2565b905080838252602082019050602084028301858111156128d4576128d3612899565b5b835b818110156128fd57806128e9888261245f565b8452602084019350506020810190506128d6565b5050509392505050565b600082601f83011261291c5761291b612738565b5b813561292c84826020860161289e565b91505092915050565b600080600080600080600060e0888a031215612954576129536123e0565b5b600088013567ffffffffffffffff811115612972576129716123e5565b5b61297e8a828b0161283f565b975050602088013567ffffffffffffffff81111561299f5761299e6123e5565b5b6129ab8a828b0161283f565b965050604088013567ffffffffffffffff8111156129cc576129cb6123e5565b5b6129d88a828b0161283f565b955050606088013567ffffffffffffffff8111156129f9576129f86123e5565b5b612a058a828b0161283f565b945050608088013567ffffffffffffffff811115612a2657612a256123e5565b5b612a328a828b0161283f565b93505060a088013567ffffffffffffffff811115612a5357612a526123e5565b5b612a5f8a828b0161283f565b92505060c088013567ffffffffffffffff811115612a8057612a7f6123e5565b5b612a8c8a828b01612907565b91505092959891949750929550565b600060208284031215612ab157612ab06123e0565b5b600082013567ffffffffffffffff811115612acf57612ace6123e5565b5b612adb8482850161283f565b91505092915050565b600081519050919050565b600082825260208201905092915050565b6000819050602082019050919050565b600082825260208201905092915050565b6000612b2c826124f0565b612b368185612b10565b9350612b4681856020860161250c565b612b4f81612536565b840191505092915050565b600082825260208201905092915050565b6000612b7682612580565b612b808185612b5a565b9350612b8b8361259c565b8060005b83811015612bbc578151612ba388826125bb565b9750612bae836125d3565b925050600181019050612b8f565b5085935050505092915050565b612bd2816123a2565b82525050565b600061014083016000830151612bf160008601826125ac565b5060208301518482036020860152612c098282612b21565b91505060408301518482036040860152612c238282612b21565b91505060608301518482036060860152612c3d8282612b21565b91505060808301518482036080860152612c578282612b21565b91505060a083015184820360a0860152612c718282612b21565b91505060c083015184820360c0860152612c8b8282612b21565b91505060e083015184820360e0860152612ca58282612b6b565b915050610100830151612cbc610100860182612bc9565b50610120830151612cd16101208601826125ac565b508091505092915050565b6000612ce88383612bd8565b905092915050565b6000602082019050919050565b6000612d0882612ae4565b612d128185612aef565b935083602082028501612d2485612b00565b8060005b85811015612d605784840389528151612d418582612cdc565b9450612d4c83612cf0565b925060208a01995050600181019050612d28565b50829750879550505050505092915050565b60006020820190508181036000830152612d8c8184612cfd565b905092915050565b60008060408385031215612dab57612daa6123e0565b5b6000612db985828601612401565b925050602083013567ffffffffffffffff811115612dda57612dd96123e5565b5b612de685828601612907565b9150509250929050565b60008115159050919050565b612e0581612df0565b82525050565b6000602082019050612e206000830184612dfc565b92915050565b6000602082019050612e3b60008301846124e1565b92915050565b600061012082019050612e57600083018c6124e1565b8181036020830152612e69818b612547565b90508181036040830152612e7d818a612547565b90508181036060830152612e918189612547565b90508181036080830152612ea58188612547565b905081810360a0830152612eb98187612547565b905081810360c0830152612ecd8186612547565b9050612edc60e08301856123ac565b612eea6101008301846124e1565b9a9950505050505050505050565b7f596f7520617265206e6f7420617574686f72697a656420746f207265706c616360008201527f6520746865206f6666696369616c000000000000000000000000000000000000602082015250565b6000612f54602e836124fb565b9150612f5f82612ef8565b604082019050919050565b60006020820190508181036000830152612f8381612f47565b9050919050565b7f4e6577206f6666696369616c206d757374206265207265676973746572656400600082015250565b6000612fc0601f836124fb565b9150612fcb82612f8a565b602082019050919050565b60006020820190508181036000830152612fef81612fb3565b9050919050565b7f496e76616c69642066696c652049440000000000000000000000000000000000600082015250565b600061302c600f836124fb565b915061303782612ff6565b602082019050919050565b6000602082019050818103600083015261305b8161301f565b9050919050565b7f4163636573732064656e6965643a20596f7520617265206e6f74206c696e6b6560008201527f6420746f20746869732063617365000000000000000000000000000000000000602082015250565b60006130be602e836124fb565b91506130c982613062565b604082019050919050565b600060208201905081810360008301526130ed816130b1565b9050919050565b7f4e487b7100000000000000000000000000000000000000000000000000000000600052602260045260246000fd5b6000600282049050600182168061313b57607f821691505b60208210810361314e5761314d6130f4565b5b50919050565b7f4f6e6c7920746865206f776e65722063616e20706572666f726d20746869732060008201527f616374696f6e0000000000000000000000000000000000000000000000000000602082015250565b60006131b06026836124fb565b91506131bb82613154565b604082019050919050565b600060208201905081810360008301526131df816131a3565b9050919050565b7f4f6e6c7920617574686f72697a65642075736572732063616e2075706c6f616460008201527f2066696c65730000000000000000000000000000000000000000000000000000602082015250565b60006132426026836124fb565b915061324d826131e6565b604082019050919050565b6000602082019050818103600083015261327181613235565b9050919050565b7f4950465320686173682069732072657175697265640000000000000000000000600082015250565b60006132ae6015836124fb565b91506132b982613278565b602082019050919050565b600060208201905081810360008301526132dd816132a1565b9050919050565b7f4174206c65617374206f6e6520636c69656e74206d757374206265206c696e6b60008201527f6564000000000000000000000000000000000000000000000000000000000000602082015250565b60006133406022836124fb565b915061334b826132e4565b604082019050919050565b6000602082019050818103600083015261336f81613333565b9050919050565b7f4e487b7100000000000000000000000000000000000000000000000000000000600052601160045260246000fd5b60006133b0826123a2565b91507fffffffffffffffffffffffffffffffffffffffffffffffffffffffffffffffff82036133e2576133e1613376565b5b600182019050919050565b60008190508160005260206000209050919050565b60006020601f8301049050919050565b600082821b905092915050565b60006008830261344f7fffffffffffffffffffffffffffffffffffffffffffffffffffffffffffffffff82613412565b6134598683613412565b95508019841693508086168417925050509392505050565b6000819050919050565b600061349661349161348c846123a2565b613471565b6123a2565b9050919050565b6000819050919050565b6134b08361347b565b6134c46134bc8261349d565b84845461341f565b825550505050565b600090565b6134d96134cc565b6134e48184846134a7565b505050565b5b81811015613508576134fd6000826134d1565b6001810190506134ea565b5050565b601f82111561354d5761351e816133ed565b61352784613402565b81016020851015613536578190505b61354a61354285613402565b8301826134e9565b50505b505050565b600082821c905092915050565b600061357060001984600802613552565b1980831691505092915050565b6000613589838361355f565b9150826002028217905092915050565b6135a2826124f0565b67ffffffffffffffff8111156135bb576135ba612742565b5b6135c58254613123565b6135d082828561350c565b600060209050601f83116001811461360357600084156135f1578287015190505b6135fb858261357d565b865550613663565b601f198416613611866133ed565b60005b8281101561363957848901518255600182019150602085019450602081019050613614565b868310156136565784890151613652601f89168261355f565b8355505b6001600288020188555050505b505050505050565b7f4e487b7100000000000000000000000000000000000000000000000000000000600052603260045260246000fd5b60006101208201905081810360008301526136b5818c612547565b905081810360208301526136c9818b612547565b905081810360408301526136dd818a612547565b905081810360608301526136f18189612547565b905081810360808301526137058188612547565b905081810360a08301526137198187612547565b905061372860c08301866123ac565b81810360e083015261373a81856125e0565b905061374a6101008301846124e1565b9a9950505050505050505050565b600081905092915050565b600061376e826124f0565b6137788185613758565b935061378881856020860161250c565b80840191505092915050565b60006137a08284613763565b915081905092915050565b600081546137b881613123565b6137c28186613758565b945060018216600081146137dd57600181146137f257613825565b60ff1983168652811515820286019350613825565b6137fb856133ed565b60005b8381101561381d578154818901526001820191506020810190506137fe565b838801955050505b50505092915050565b600061383a82846137ab565b915081905092915050565b7f4f6e6c7920636f757274206f6666696369616c732063616e2075706c6f61642060008201527f66696c6573000000000000000000000000000000000000000000000000000000602082015250565b60006138a16025836124fb565b91506138ac82613845565b604082019050919050565b600060208201905081810360008301526138d081613894565b9050919050565b7f596f7520617265206e6f7420746865206c696e6b656420636f757274206f666660008201527f696369616c20666f722074686973206361736500000000000000000000000000602082015250565b60006139336033836124fb565b915061393e826138d7565b604082019050919050565b6000602082019050818103600083015261396281613926565b9050919050565b7f436c69656e7420697320616c7265616479206c696e6b656420746f207468697360008201527f2063617365000000000000000000000000000000000000000000000000000000602082015250565b60006139c56025836124fb565b91506139d082613969565b604082019050919050565b600060208201905081810360008301526139f4816139b8565b905091905056fea2646970667358221220a91fd15f44071671b7e0e0933864db49df8bfc817eac184f75ba53b2b798687464736f6c63430008180033",
  "linkReferences": {},
  "deployedLinkReferences": {}
}