{
  "_format": "hh-sol-artifact-1",
  "contractName": "NavinEvault",
  "sourceName": "contracts/NavinEvault.sol",
  "abi": [
    {
      "inputs": [],
      "stateMutability": "nonpayable",
      "type": "constructor"
    },
    {
      "anonymous": false,
      "inputs": [
        {
          "indexed": true,
          "internalType": "uint256",
          "name": "fileId",
          "type": "uint256"
        },
        {
          "indexed": false,
          "internalType": "address",
          "name": "client",
          "type": "address"
        }
      ],
      "name": "ClientLinked",
      "type": "event"
    },
    {
      "anonymous": false,
      "inputs": [
        {
          "indexed": true,
          "internalType": "address",
          "name": "uploader",
          "type": "address"
        },
        {
          "indexed": true,
          "internalType": "uint256",
          "name": "fileId",
          "type": "uint256"
        },
        {
          "indexed": false,
          "internalType": "string",
          "name": "ipfsHash",
          "type": "string"
        },
        {
          "indexed": false,
          "internalType": "string",
          "name": "title",
          "type": "string"
        },
        {
          "indexed": false,
          "internalType": "string",
          "name": "dateOfJudgment",
          "type": "string"
        },
        {
          "indexed": false,
          "internalType": "string",
          "name": "caseNumber",
          "type": "string"
        },
        {
          "indexed": false,
          "internalType": "string",
          "name": "category",
          "type": "string"
        },
        {
          "indexed": false,
          "internalType": "string",
          "name": "judgeName",
          "type": "string"
        },
        {
          "indexed": false,
          "internalType": "uint256",
          "name": "timestamp",
          "type": "uint256"
        },
        {
          "indexed": false,
          "internalType": "address[]",
          "name": "linkedClients",
          "type": "address[]"
        }
      ],
      "name": "FileUploaded",
      "type": "event"
    },
    {
      "inputs": [
        {
          "internalType": "address",
          "name": "_official",
          "type": "address"
        }
      ],
      "name": "addCourtOfficial",
      "outputs": [],
      "stateMutability": "nonpayable",
      "type": "function"
    },
    {
      "inputs": [
        {
          "internalType": "uint256",
          "name": "",
          "type": "uint256"
        }
      ],
      "name": "caseFiles",
      "outputs": [
        {
          "internalType": "address",
          "name": "uploader",
          "type": "address"
        },
        {
          "internalType": "string",
          "name": "ipfsHash",
          "type": "string"
        },
        {
          "internalType": "string",
          "name": "title",
          "type": "string"
        },
        {
          "internalType": "string",
          "name": "dateOfJudgment",
          "type": "string"
        },
        {
          "internalType": "string",
          "name": "caseNumber",
          "type": "string"
        },
        {
          "internalType": "string",
          "name": "category",
          "type": "string"
        },
        {
          "internalType": "string",
          "name": "judgeName",
          "type": "string"
        },
        {
          "internalType": "uint256",
          "name": "timestamp",
          "type": "uint256"
        }
      ],
      "stateMutability": "view",
      "type": "function"
    },
    {
      "inputs": [
        {
          "internalType": "uint256",
          "name": "_fileId",
          "type": "uint256"
        }
      ],
      "name": "getFile",
      "outputs": [
        {
          "internalType": "address",
          "name": "uploader",
          "type": "address"
        },
        {
          "internalType": "string",
          "name": "ipfsHash",
          "type": "string"
        },
        {
          "internalType": "string",
          "name": "title",
          "type": "string"
        },
        {
          "internalType": "string",
          "name": "dateOfJudgment",
          "type": "string"
        },
        {
          "internalType": "string",
          "name": "caseNumber",
          "type": "string"
        },
        {
          "internalType": "string",
          "name": "category",
          "type": "string"
        },
        {
          "internalType": "string",
          "name": "judgeName",
          "type": "string"
        },
        {
          "internalType": "address[]",
          "name": "linkedClients",
          "type": "address[]"
        },
        {
          "internalType": "uint256",
          "name": "timestamp",
          "type": "uint256"
        }
      ],
      "stateMutability": "view",
      "type": "function"
    },
    {
      "inputs": [
        {
          "internalType": "address",
          "name": "_official",
          "type": "address"
        }
      ],
      "name": "isCourtOfficial",
      "outputs": [
        {
          "internalType": "bool",
          "name": "",
          "type": "bool"
        }
      ],
      "stateMutability": "view",
      "type": "function"
    },
    {
      "inputs": [
        {
          "internalType": "uint256",
          "name": "_fileId",
          "type": "uint256"
        },
        {
          "internalType": "address[]",
          "name": "_clients",
          "type": "address[]"
        }
      ],
      "name": "linkClients",
      "outputs": [],
      "stateMutability": "nonpayable",
      "type": "function"
    },
    {
      "inputs": [
        {
          "internalType": "uint256",
          "name": "",
          "type": "uint256"
        },
        {
          "internalType": "address",
          "name": "",
          "type": "address"
        }
      ],
      "name": "linkedClientsMap",
      "outputs": [
        {
          "internalType": "bool",
          "name": "",
          "type": "bool"
        }
      ],
      "stateMutability": "view",
      "type": "function"
    },
    {
      "inputs": [],
      "name": "owner",
      "outputs": [
        {
          "internalType": "address",
          "name": "",
          "type": "address"
        }
      ],
      "stateMutability": "view",
      "type": "function"
    },
    {
      "inputs": [
        {
          "internalType": "address",
          "name": "_official",
          "type": "address"
        }
      ],
      "name": "removeCourtOfficial",
      "outputs": [],
      "stateMutability": "nonpayable",
      "type": "function"
    },
    {
      "inputs": [
        {
          "internalType": "string",
          "name": "_title",
          "type": "string"
        }
      ],
      "name": "searchByTitle",
      "outputs": [
        {
          "components": [
            {
              "internalType": "address",
              "name": "uploader",
              "type": "address"
            },
            {
              "internalType": "string",
              "name": "ipfsHash",
              "type": "string"
            },
            {
              "internalType": "string",
              "name": "title",
              "type": "string"
            },
            {
              "internalType": "string",
              "name": "dateOfJudgment",
              "type": "string"
            },
            {
              "internalType": "string",
              "name": "caseNumber",
              "type": "string"
            },
            {
              "internalType": "string",
              "name": "category",
              "type": "string"
            },
            {
              "internalType": "string",
              "name": "judgeName",
              "type": "string"
            },
            {
              "internalType": "address[]",
              "name": "linkedClients",
              "type": "address[]"
            },
            {
              "internalType": "uint256",
              "name": "timestamp",
              "type": "uint256"
            }
          ],
          "internalType": "struct NavinEvault.CaseFile[]",
          "name": "",
          "type": "tuple[]"
        }
      ],
      "stateMutability": "view",
      "type": "function"
    },
    {
      "inputs": [],
      "name": "totalCaseFiles",
      "outputs": [
        {
          "internalType": "uint256",
          "name": "",
          "type": "uint256"
        }
      ],
      "stateMutability": "view",
      "type": "function"
    },
    {
      "inputs": [
        {
          "internalType": "string",
          "name": "_ipfsHash",
          "type": "string"
        },
        {
          "internalType": "string",
          "name": "_title",
          "type": "string"
        },
        {
          "internalType": "string",
          "name": "_dateOfJudgment",
          "type": "string"
        },
        {
          "internalType": "string",
          "name": "_caseNumber",
          "type": "string"
        },
        {
          "internalType": "string",
          "name": "_category",
          "type": "string"
        },
        {
          "internalType": "string",
          "name": "_judgeName",
          "type": "string"
        },
        {
          "internalType": "address[]",
          "name": "_linkedClients",
          "type": "address[]"
        }
      ],
      "name": "uploadFile",
      "outputs": [],
      "stateMutability": "nonpayable",
      "type": "function"
    }
  ],
  "bytecode": "0x608060405234801561001057600080fd5b50336000806101000a81548173ffffffffffffffffffffffffffffffffffffffff021916908373ffffffffffffffffffffffffffffffffffffffff160217905550612e32806100606000396000f3fe608060405234801561001057600080fd5b50600436106100a95760003560e01c80637babb1a9116100715780637babb1a91461016c57806387fddb32146101885780638da5cb5b146101b8578063a3373a89146101d6578063cd91fcc5146101f2578063fbebf5df14610222576100a9565b80631bc9d8a4146100ae5780632bfda313146100cc578063523dd93e146101045780635bab3ba1146101205780636a33727c14610150575b600080fd5b6100b6610259565b6040516100c39190611ad8565b60405180910390f35b6100e660048036038101906100e19190611b33565b61025f565b6040516100fb99989796959493929190611cef565b60405180910390f35b61011e60048036038101906101199190611fd6565b61070b565b005b61013a6004803603810190610135919061213c565b610a9f565b60405161014791906123fe565b60405180910390f35b61016a60048036038101906101659190612420565b6110d3565b005b6101866004803603810190610181919061244d565b6111bb565b005b6101a2600480360381019061019d9190612420565b61148c565b6040516101af91906124c4565b60405180910390f35b6101c06114e2565b6040516101cd91906124df565b60405180910390f35b6101f060048036038101906101eb9190612420565b611506565b005b61020c600480360381019061020791906124fa565b6115ef565b60405161021991906124c4565b60405180910390f35b61023c60048036038101906102379190611b33565b61161e565b60405161025098979695949392919061253a565b60405180910390f35b60045481565b600060608060608060608060606000808a11801561027f57506004548a11155b6102be576040517f08c379a00000000000000000000000000000000000000000000000000000000081526004016102b59061262e565b60405180910390fd5b6000600260008c815260200190815260200160002090508060000160009054906101000a900473ffffffffffffffffffffffffffffffffffffffff168160010182600201836003018460040185600501866006018760070188600801548780546103279061267d565b80601f01602080910402602001604051908101604052809291908181526020018280546103539061267d565b80156103a05780601f10610375576101008083540402835291602001916103a0565b820191906000526020600020905b81548152906001019060200180831161038357829003601f168201915b505050505097508680546103b39061267d565b80601f01602080910402602001604051908101604052809291908181526020018280546103df9061267d565b801561042c5780601f106104015761010080835404028352916020019161042c565b820191906000526020600020905b81548152906001019060200180831161040f57829003601f168201915b5050505050965085805461043f9061267d565b80601f016020809104026020016040519081016040528092919081815260200182805461046b9061267d565b80156104b85780601f1061048d576101008083540402835291602001916104b8565b820191906000526020600020905b81548152906001019060200180831161049b57829003601f168201915b505050505095508480546104cb9061267d565b80601f01602080910402602001604051908101604052809291908181526020018280546104f79061267d565b80156105445780601f1061051957610100808354040283529160200191610544565b820191906000526020600020905b81548152906001019060200180831161052757829003601f168201915b505050505094508380546105579061267d565b80601f01602080910402602001604051908101604052809291908181526020018280546105839061267d565b80156105d05780601f106105a5576101008083540402835291602001916105d0565b820191906000526020600020905b8154815290600101906020018083116105b357829003601f168201915b505050505093508280546105e39061267d565b80601f016020809104026020016040519081016040528092919081815260200182805461060f9061267d565b801561065c5780601f106106315761010080835404028352916020019161065c565b820191906000526020600020905b81548152906001019060200180831161063f57829003601f168201915b50505050509250818054806020026020016040519081016040528092919081815260200182805480156106e457602002820191906000526020600020905b8160009054906101000a900473ffffffffffffffffffffffffffffffffffffffff1673ffffffffffffffffffffffffffffffffffffffff168152602001906001019080831161069a575b50505050509150995099509950995099509950995099509950509193959799909294969850565b600160003373ffffffffffffffffffffffffffffffffffffffff1673ffffffffffffffffffffffffffffffffffffffff16815260200190815260200160002060009054906101000a900460ff16610797576040517f08c379a000000000000000000000000000000000000000000000000000000000815260040161078e90612720565b60405180910390fd5b60008751116107db576040517f08c379a00000000000000000000000000000000000000000000000000000000081526004016107d29061278c565b60405180910390fd5b600081511161081f576040517f08c379a00000000000000000000000000000000000000000000000000000000081526004016108169061281e565b60405180910390fd5b600460008154809291906108329061286d565b91905055506040518061012001604052803373ffffffffffffffffffffffffffffffffffffffff1681526020018881526020018781526020018681526020018581526020018481526020018381526020018281526020014281525060026000600454815260200190815260200160002060008201518160000160006101000a81548173ffffffffffffffffffffffffffffffffffffffff021916908373ffffffffffffffffffffffffffffffffffffffff16021790555060208201518160010190816108fe9190612a61565b5060408201518160020190816109149190612a61565b50606082015181600301908161092a9190612a61565b5060808201518160040190816109409190612a61565b5060a08201518160050190816109569190612a61565b5060c082015181600601908161096c9190612a61565b5060e08201518160070190805190602001906109899291906119b6565b50610100820151816008015590505060005b8151811015610a3657600160036000600454815260200190815260200160002060008484815181106109d0576109cf612b33565b5b602002602001015173ffffffffffffffffffffffffffffffffffffffff1673ffffffffffffffffffffffffffffffffffffffff16815260200190815260200160002060006101000a81548160ff021916908315150217905550808060010191505061099b565b506004543373ffffffffffffffffffffffffffffffffffffffff167f54fb8dd4614293967e8e7b3b03b9d368553830418f8b1624659b809d6dfba0ea898989898989428a604051610a8e989796959493929190612b62565b60405180910390a350505050505050565b6060600080600190505b6004548111610b3c5783604051602001610ac39190612c4d565b6040516020818303038152906040528051906020012060026000838152602001908152602001600020600201604051602001610aff9190612ce7565b6040516020818303038152906040528051906020012003610b29578180610b259061286d565b9250505b8080610b349061286d565b915050610aa9565b5060008167ffffffffffffffff811115610b5957610b58611db7565b5b604051908082528060200260200182016040528015610b9257816020015b610b7f611a40565b815260200190600190039081610b775790505b509050600080600190505b60045481116110c75785604051602001610bb79190612c4d565b6040516020818303038152906040528051906020012060026000838152602001908152602001600020600201604051602001610bf39190612ce7565b60405160208183030381529060405280519060200120036110b45760026000828152602001908152602001600020604051806101200160405290816000820160009054906101000a900473ffffffffffffffffffffffffffffffffffffffff1673ffffffffffffffffffffffffffffffffffffffff1673ffffffffffffffffffffffffffffffffffffffff168152602001600182018054610c939061267d565b80601f0160208091040260200160405190810160405280929190818152602001828054610cbf9061267d565b8015610d0c5780601f10610ce157610100808354040283529160200191610d0c565b820191906000526020600020905b815481529060010190602001808311610cef57829003601f168201915b50505050508152602001600282018054610d259061267d565b80601f0160208091040260200160405190810160405280929190818152602001828054610d519061267d565b8015610d9e5780601f10610d7357610100808354040283529160200191610d9e565b820191906000526020600020905b815481529060010190602001808311610d8157829003601f168201915b50505050508152602001600382018054610db79061267d565b80601f0160208091040260200160405190810160405280929190818152602001828054610de39061267d565b8015610e305780601f10610e0557610100808354040283529160200191610e30565b820191906000526020600020905b815481529060010190602001808311610e1357829003601f168201915b50505050508152602001600482018054610e499061267d565b80601f0160208091040260200160405190810160405280929190818152602001828054610e759061267d565b8015610ec25780601f10610e9757610100808354040283529160200191610ec2565b820191906000526020600020905b815481529060010190602001808311610ea557829003601f168201915b50505050508152602001600582018054610edb9061267d565b80601f0160208091040260200160405190810160405280929190818152602001828054610f079061267d565b8015610f545780601f10610f2957610100808354040283529160200191610f54565b820191906000526020600020905b815481529060010190602001808311610f3757829003601f168201915b50505050508152602001600682018054610f6d9061267d565b80601f0160208091040260200160405190810160405280929190818152602001828054610f999061267d565b8015610fe65780601f10610fbb57610100808354040283529160200191610fe6565b820191906000526020600020905b815481529060010190602001808311610fc957829003601f168201915b505050505081526020016007820180548060200260200160405190810160405280929190818152602001828054801561107457602002820191906000526020600020905b8160009054906101000a900473ffffffffffffffffffffffffffffffffffffffff1673ffffffffffffffffffffffffffffffffffffffff168152602001906001019080831161102a575b5050505050815260200160088201548152505083838151811061109a57611099612b33565b5b602002602001018190525081806110b09061286d565b9250505b80806110bf9061286d565b915050610b9d565b50819350505050919050565b60008054906101000a900473ffffffffffffffffffffffffffffffffffffffff1673ffffffffffffffffffffffffffffffffffffffff163373ffffffffffffffffffffffffffffffffffffffff1614611161576040517f08c379a000000000000000000000000000000000000000000000000000000000815260040161115890612d70565b60405180910390fd5b60018060008373ffffffffffffffffffffffffffffffffffffffff1673ffffffffffffffffffffffffffffffffffffffff16815260200190815260200160002060006101000a81548160ff02191690831515021790555050565b600160003373ffffffffffffffffffffffffffffffffffffffff1673ffffffffffffffffffffffffffffffffffffffff16815260200190815260200160002060009054906101000a900460ff16611247576040517f08c379a000000000000000000000000000000000000000000000000000000000815260040161123e90612720565b60405180910390fd5b60008211801561125957506004548211155b611298576040517f08c379a000000000000000000000000000000000000000000000000000000000815260040161128f9061262e565b60405180910390fd5b60005b81518110156114875760008282815181106112b9576112b8612b33565b5b602002602001015190506003600085815260200190815260200160002060008273ffffffffffffffffffffffffffffffffffffffff1673ffffffffffffffffffffffffffffffffffffffff16815260200190815260200160002060009054906101000a900460ff1615611361576040517f08c379a000000000000000000000000000000000000000000000000000000000815260040161135890612ddc565b60405180910390fd5b60016003600086815260200190815260200160002060008373ffffffffffffffffffffffffffffffffffffffff1673ffffffffffffffffffffffffffffffffffffffff16815260200190815260200160002060006101000a81548160ff02191690831515021790555060026000858152602001908152602001600020600701819080600181540180825580915050600190039060005260206000200160009091909190916101000a81548173ffffffffffffffffffffffffffffffffffffffff021916908373ffffffffffffffffffffffffffffffffffffffff160217905550837f83f7734d95fc3a4d03799a04b64d189f2cb486ac21a89b7448ffe044037137528260405161147191906124df565b60405180910390a250808060010191505061129b565b505050565b6000600160008373ffffffffffffffffffffffffffffffffffffffff1673ffffffffffffffffffffffffffffffffffffffff16815260200190815260200160002060009054906101000a900460ff169050919050565b60008054906101000a900473ffffffffffffffffffffffffffffffffffffffff1681565b60008054906101000a900473ffffffffffffffffffffffffffffffffffffffff1673ffffffffffffffffffffffffffffffffffffffff163373ffffffffffffffffffffffffffffffffffffffff1614611594576040517f08c379a000000000000000000000000000000000000000000000000000000000815260040161158b90612d70565b60405180910390fd5b6000600160008373ffffffffffffffffffffffffffffffffffffffff1673ffffffffffffffffffffffffffffffffffffffff16815260200190815260200160002060006101000a81548160ff02191690831515021790555050565b60036020528160005260406000206020528060005260406000206000915091509054906101000a900460ff1681565b60026020528060005260406000206000915090508060000160009054906101000a900473ffffffffffffffffffffffffffffffffffffffff16908060010180546116679061267d565b80601f01602080910402602001604051908101604052809291908181526020018280546116939061267d565b80156116e05780601f106116b5576101008083540402835291602001916116e0565b820191906000526020600020905b8154815290600101906020018083116116c357829003601f168201915b5050505050908060020180546116f59061267d565b80601f01602080910402602001604051908101604052809291908181526020018280546117219061267d565b801561176e5780601f106117435761010080835404028352916020019161176e565b820191906000526020600020905b81548152906001019060200180831161175157829003601f168201915b5050505050908060030180546117839061267d565b80601f01602080910402602001604051908101604052809291908181526020018280546117af9061267d565b80156117fc5780601f106117d1576101008083540402835291602001916117fc565b820191906000526020600020905b8154815290600101906020018083116117df57829003601f168201915b5050505050908060040180546118119061267d565b80601f016020809104026020016040519081016040528092919081815260200182805461183d9061267d565b801561188a5780601f1061185f5761010080835404028352916020019161188a565b820191906000526020600020905b81548152906001019060200180831161186d57829003601f168201915b50505050509080600501805461189f9061267d565b80601f01602080910402602001604051908101604052809291908181526020018280546118cb9061267d565b80156119185780601f106118ed57610100808354040283529160200191611918565b820191906000526020600020905b8154815290600101906020018083116118fb57829003601f168201915b50505050509080600601805461192d9061267d565b80601f01602080910402602001604051908101604052809291908181526020018280546119599061267d565b80156119a65780601f1061197b576101008083540402835291602001916119a6565b820191906000526020600020905b81548152906001019060200180831161198957829003601f168201915b5050505050908060080154905088565b828054828255906000526020600020908101928215611a2f579160200282015b82811115611a2e5782518260006101000a81548173ffffffffffffffffffffffffffffffffffffffff021916908373ffffffffffffffffffffffffffffffffffffffff160217905550916020019190600101906119d6565b5b509050611a3c9190611aa2565b5090565b604051806101200160405280600073ffffffffffffffffffffffffffffffffffffffff16815260200160608152602001606081526020016060815260200160608152602001606081526020016060815260200160608152602001600081525090565b5b80821115611abb576000816000905550600101611aa3565b5090565b6000819050919050565b611ad281611abf565b82525050565b6000602082019050611aed6000830184611ac9565b92915050565b6000604051905090565b600080fd5b600080fd5b611b1081611abf565b8114611b1b57600080fd5b50565b600081359050611b2d81611b07565b92915050565b600060208284031215611b4957611b48611afd565b5b6000611b5784828501611b1e565b91505092915050565b600073ffffffffffffffffffffffffffffffffffffffff82169050919050565b6000611b8b82611b60565b9050919050565b611b9b81611b80565b82525050565b600081519050919050565b600082825260208201905092915050565b60005b83811015611bdb578082015181840152602081019050611bc0565b60008484015250505050565b6000601f19601f8301169050919050565b6000611c0382611ba1565b611c0d8185611bac565b9350611c1d818560208601611bbd565b611c2681611be7565b840191505092915050565b600081519050919050565b600082825260208201905092915050565b6000819050602082019050919050565b611c6681611b80565b82525050565b6000611c788383611c5d565b60208301905092915050565b6000602082019050919050565b6000611c9c82611c31565b611ca68185611c3c565b9350611cb183611c4d565b8060005b83811015611ce2578151611cc98882611c6c565b9750611cd483611c84565b925050600181019050611cb5565b5085935050505092915050565b600061012082019050611d05600083018c611b92565b8181036020830152611d17818b611bf8565b90508181036040830152611d2b818a611bf8565b90508181036060830152611d3f8189611bf8565b90508181036080830152611d538188611bf8565b905081810360a0830152611d678187611bf8565b905081810360c0830152611d7b8186611bf8565b905081810360e0830152611d8f8185611c91565b9050611d9f610100830184611ac9565b9a9950505050505050505050565b600080fd5b600080fd5b7f4e487b7100000000000000000000000000000000000000000000000000000000600052604160045260246000fd5b611def82611be7565b810181811067ffffffffffffffff82111715611e0e57611e0d611db7565b5b80604052505050565b6000611e21611af3565b9050611e2d8282611de6565b919050565b600067ffffffffffffffff821115611e4d57611e4c611db7565b5b611e5682611be7565b9050602081019050919050565b82818337600083830152505050565b6000611e85611e8084611e32565b611e17565b905082815260208101848484011115611ea157611ea0611db2565b5b611eac848285611e63565b509392505050565b600082601f830112611ec957611ec8611dad565b5b8135611ed9848260208601611e72565b91505092915050565b600067ffffffffffffffff821115611efd57611efc611db7565b5b602082029050602081019050919050565b600080fd5b611f1c81611b80565b8114611f2757600080fd5b50565b600081359050611f3981611f13565b92915050565b6000611f52611f4d84611ee2565b611e17565b90508083825260208201905060208402830185811115611f7557611f74611f0e565b5b835b81811015611f9e5780611f8a8882611f2a565b845260208401935050602081019050611f77565b5050509392505050565b600082601f830112611fbd57611fbc611dad565b5b8135611fcd848260208601611f3f565b91505092915050565b600080600080600080600060e0888a031215611ff557611ff4611afd565b5b600088013567ffffffffffffffff81111561201357612012611b02565b5b61201f8a828b01611eb4565b975050602088013567ffffffffffffffff8111156120405761203f611b02565b5b61204c8a828b01611eb4565b965050604088013567ffffffffffffffff81111561206d5761206c611b02565b5b6120798a828b01611eb4565b955050606088013567ffffffffffffffff81111561209a57612099611b02565b5b6120a68a828b01611eb4565b945050608088013567ffffffffffffffff8111156120c7576120c6611b02565b5b6120d38a828b01611eb4565b93505060a088013567ffffffffffffffff8111156120f4576120f3611b02565b5b6121008a828b01611eb4565b92505060c088013567ffffffffffffffff81111561212157612120611b02565b5b61212d8a828b01611fa8565b91505092959891949750929550565b60006020828403121561215257612151611afd565b5b600082013567ffffffffffffffff8111156121705761216f611b02565b5b61217c84828501611eb4565b91505092915050565b600081519050919050565b600082825260208201905092915050565b6000819050602082019050919050565b600082825260208201905092915050565b60006121cd82611ba1565b6121d781856121b1565b93506121e7818560208601611bbd565b6121f081611be7565b840191505092915050565b600082825260208201905092915050565b600061221782611c31565b61222181856121fb565b935061222c83611c4d565b8060005b8381101561225d5781516122448882611c6c565b975061224f83611c84565b925050600181019050612230565b5085935050505092915050565b61227381611abf565b82525050565b6000610120830160008301516122926000860182611c5d565b50602083015184820360208601526122aa82826121c2565b915050604083015184820360408601526122c482826121c2565b915050606083015184820360608601526122de82826121c2565b915050608083015184820360808601526122f882826121c2565b91505060a083015184820360a086015261231282826121c2565b91505060c083015184820360c086015261232c82826121c2565b91505060e083015184820360e0860152612346828261220c565b91505061010083015161235d61010086018261226a565b508091505092915050565b60006123748383612279565b905092915050565b6000602082019050919050565b600061239482612185565b61239e8185612190565b9350836020820285016123b0856121a1565b8060005b858110156123ec57848403895281516123cd8582612368565b94506123d88361237c565b925060208a019950506001810190506123b4565b50829750879550505050505092915050565b600060208201905081810360008301526124188184612389565b905092915050565b60006020828403121561243657612435611afd565b5b600061244484828501611f2a565b91505092915050565b6000806040838503121561246457612463611afd565b5b600061247285828601611b1e565b925050602083013567ffffffffffffffff81111561249357612492611b02565b5b61249f85828601611fa8565b9150509250929050565b60008115159050919050565b6124be816124a9565b82525050565b60006020820190506124d960008301846124b5565b92915050565b60006020820190506124f46000830184611b92565b92915050565b6000806040838503121561251157612510611afd565b5b600061251f85828601611b1e565b925050602061253085828601611f2a565b9150509250929050565b600061010082019050612550600083018b611b92565b8181036020830152612562818a611bf8565b905081810360408301526125768189611bf8565b9050818103606083015261258a8188611bf8565b9050818103608083015261259e8187611bf8565b905081810360a08301526125b28186611bf8565b905081810360c08301526125c68185611bf8565b90506125d560e0830184611ac9565b9998505050505050505050565b7f496e76616c69642066696c652049440000000000000000000000000000000000600082015250565b6000612618600f83611bac565b9150612623826125e2565b602082019050919050565b600060208201905081810360008301526126478161260b565b9050919050565b7f4e487b7100000000000000000000000000000000000000000000000000000000600052602260045260246000fd5b6000600282049050600182168061269557607f821691505b6020821081036126a8576126a761264e565b5b50919050565b7f4f6e6c7920636f757274206f6666696369616c732063616e2075706c6f61642060008201527f66696c6573000000000000000000000000000000000000000000000000000000602082015250565b600061270a602583611bac565b9150612715826126ae565b604082019050919050565b60006020820190508181036000830152612739816126fd565b9050919050565b7f4950465320686173682069732072657175697265640000000000000000000000600082015250565b6000612776601583611bac565b915061278182612740565b602082019050919050565b600060208201905081810360008301526127a581612769565b9050919050565b7f4174206c65617374206f6e6520636c69656e74206d757374206265206c696e6b60008201527f6564000000000000000000000000000000000000000000000000000000000000602082015250565b6000612808602283611bac565b9150612813826127ac565b604082019050919050565b60006020820190508181036000830152612837816127fb565b9050919050565b7f4e487b7100000000000000000000000000000000000000000000000000000000600052601160045260246000fd5b600061287882611abf565b91507fffffffffffffffffffffffffffffffffffffffffffffffffffffffffffffffff82036128aa576128a961283e565b5b600182019050919050565b60008190508160005260206000209050919050565b60006020601f8301049050919050565b600082821b905092915050565b6000600883026129177fffffffffffffffffffffffffffffffffffffffffffffffffffffffffffffffff826128da565b61292186836128da565b95508019841693508086168417925050509392505050565b6000819050919050565b600061295e61295961295484611abf565b612939565b611abf565b9050919050565b6000819050919050565b61297883612943565b61298c61298482612965565b8484546128e7565b825550505050565b600090565b6129a1612994565b6129ac81848461296f565b505050565b5b818110156129d0576129c5600082612999565b6001810190506129b2565b5050565b601f821115612a15576129e6816128b5565b6129ef846128ca565b810160208510156129fe578190505b612a12612a0a856128ca565b8301826129b1565b50505b505050565b600082821c905092915050565b6000612a3860001984600802612a1a565b1980831691505092915050565b6000612a518383612a27565b9150826002028217905092915050565b612a6a82611ba1565b67ffffffffffffffff811115612a8357612a82611db7565b5b612a8d825461267d565b612a988282856129d4565b600060209050601f831160018114612acb5760008415612ab9578287015190505b612ac38582612a45565b865550612b2b565b601f198416612ad9866128b5565b60005b82811015612b0157848901518255600182019150602085019450602081019050612adc565b86831015612b1e5784890151612b1a601f891682612a27565b8355505b6001600288020188555050505b505050505050565b7f4e487b7100000000000000000000000000000000000000000000000000000000600052603260045260246000fd5b6000610100820190508181036000830152612b7d818b611bf8565b90508181036020830152612b91818a611bf8565b90508181036040830152612ba58189611bf8565b90508181036060830152612bb98188611bf8565b90508181036080830152612bcd8187611bf8565b905081810360a0830152612be18186611bf8565b9050612bf060c0830185611ac9565b81810360e0830152612c028184611c91565b90509998505050505050505050565b600081905092915050565b6000612c2782611ba1565b612c318185612c11565b9350612c41818560208601611bbd565b80840191505092915050565b6000612c598284612c1c565b915081905092915050565b60008154612c718161267d565b612c7b8186612c11565b94506001821660008114612c965760018114612cab57612cde565b60ff1983168652811515820286019350612cde565b612cb4856128b5565b60005b83811015612cd657815481890152600182019150602081019050612cb7565b838801955050505b50505092915050565b6000612cf38284612c64565b915081905092915050565b7f4f6e6c7920746865206f776e65722063616e20706572666f726d20746869732060008201527f616374696f6e0000000000000000000000000000000000000000000000000000602082015250565b6000612d5a602683611bac565b9150612d6582612cfe565b604082019050919050565b60006020820190508181036000830152612d8981612d4d565b9050919050565b7f436c69656e7420616c7265616479206c696e6b65640000000000000000000000600082015250565b6000612dc6601583611bac565b9150612dd182612d90565b602082019050919050565b60006020820190508181036000830152612df581612db9565b905091905056fea264697066735822122025e75f318ca66ecf2491b6ce749c2bebef4d9c66f19d35827b9468aa677b1dd264736f6c63430008180033",
  "linkReferences": {},
  "deployedLinkReferences": {}
}