{
  "_format": "hh-sol-artifact-1",
  "contractName": "NewEVault",
  "sourceName": "contracts/NewEvault.sol",
  "abi": [
    {
      "inputs": [],
      "stateMutability": "nonpayable",
      "type": "constructor"
    },
    {
      "anonymous": false,
      "inputs": [
        {
          "indexed": true,
          "internalType": "address",
          "name": "uploader",
          "type": "address"
        },
        {
          "indexed": true,
          "internalType": "uint256",
          "name": "fileId",
          "type": "uint256"
        },
        {
          "indexed": false,
          "internalType": "string",
          "name": "ipfsHash",
          "type": "string"
        },
        {
          "indexed": false,
          "internalType": "string",
          "name": "title",
          "type": "string"
        },
        {
          "indexed": false,
          "internalType": "string",
          "name": "dateOfJudgment",
          "type": "string"
        },
        {
          "indexed": false,
          "internalType": "string",
          "name": "caseNumber",
          "type": "string"
        },
        {
          "indexed": false,
          "internalType": "string",
          "name": "category",
          "type": "string"
        },
        {
          "indexed": false,
          "internalType": "string",
          "name": "judgeName",
          "type": "string"
        },
        {
          "indexed": false,
          "internalType": "uint256",
          "name": "timestamp",
          "type": "uint256"
        },
        {
          "indexed": false,
          "internalType": "address[]",
          "name": "clients",
          "type": "address[]"
        }
      ],
      "name": "FileUploaded",
      "type": "event"
    },
    {
      "inputs": [
        {
          "internalType": "address",
          "name": "_official",
          "type": "address"
        }
      ],
      "name": "addCourtOfficial",
      "outputs": [],
      "stateMutability": "nonpayable",
      "type": "function"
    },
    {
      "inputs": [
        {
          "internalType": "uint256",
          "name": "_fileId",
          "type": "uint256"
        },
        {
          "internalType": "address",
          "name": "_client",
          "type": "address"
        }
      ],
      "name": "canClientAccess",
      "outputs": [
        {
          "internalType": "bool",
          "name": "",
          "type": "bool"
        }
      ],
      "stateMutability": "view",
      "type": "function"
    },
    {
      "inputs": [
        {
          "internalType": "uint256",
          "name": "",
          "type": "uint256"
        }
      ],
      "name": "caseFiles",
      "outputs": [
        {
          "internalType": "address",
          "name": "uploader",
          "type": "address"
        },
        {
          "internalType": "string",
          "name": "ipfsHash",
          "type": "string"
        },
        {
          "internalType": "string",
          "name": "title",
          "type": "string"
        },
        {
          "internalType": "string",
          "name": "dateOfJudgment",
          "type": "string"
        },
        {
          "internalType": "string",
          "name": "caseNumber",
          "type": "string"
        },
        {
          "internalType": "string",
          "name": "category",
          "type": "string"
        },
        {
          "internalType": "string",
          "name": "judgeName",
          "type": "string"
        },
        {
          "internalType": "uint256",
          "name": "timestamp",
          "type": "uint256"
        }
      ],
      "stateMutability": "view",
      "type": "function"
    },
    {
      "inputs": [
        {
          "internalType": "uint256",
          "name": "_fileId",
          "type": "uint256"
        }
      ],
      "name": "getClientsForFile",
      "outputs": [
        {
          "internalType": "address[]",
          "name": "",
          "type": "address[]"
        }
      ],
      "stateMutability": "view",
      "type": "function"
    },
    {
      "inputs": [
        {
          "internalType": "address",
          "name": "_official",
          "type": "address"
        }
      ],
      "name": "isCourtOfficial",
      "outputs": [
        {
          "internalType": "bool",
          "name": "",
          "type": "bool"
        }
      ],
      "stateMutability": "view",
      "type": "function"
    },
    {
      "inputs": [],
      "name": "owner",
      "outputs": [
        {
          "internalType": "address",
          "name": "",
          "type": "address"
        }
      ],
      "stateMutability": "view",
      "type": "function"
    },
    {
      "inputs": [
        {
          "internalType": "address",
          "name": "_official",
          "type": "address"
        }
      ],
      "name": "removeCourtOfficial",
      "outputs": [],
      "stateMutability": "nonpayable",
      "type": "function"
    },
    {
      "inputs": [
        {
          "internalType": "string",
          "name": "_title",
          "type": "string"
        }
      ],
      "name": "searchByTitle",
      "outputs": [
        {
          "internalType": "uint256[]",
          "name": "",
          "type": "uint256[]"
        }
      ],
      "stateMutability": "view",
      "type": "function"
    },
    {
      "inputs": [],
      "name": "totalCaseFiles",
      "outputs": [
        {
          "internalType": "uint256",
          "name": "",
          "type": "uint256"
        }
      ],
      "stateMutability": "view",
      "type": "function"
    },
    {
      "inputs": [
        {
          "internalType": "string",
          "name": "_ipfsHash",
          "type": "string"
        },
        {
          "internalType": "string",
          "name": "_title",
          "type": "string"
        },
        {
          "internalType": "string",
          "name": "_dateOfJudgment",
          "type": "string"
        },
        {
          "internalType": "string",
          "name": "_caseNumber",
          "type": "string"
        },
        {
          "internalType": "string",
          "name": "_category",
          "type": "string"
        },
        {
          "internalType": "string",
          "name": "_judgeName",
          "type": "string"
        },
        {
          "internalType": "address[]",
          "name": "_clients",
          "type": "address[]"
        }
      ],
      "name": "uploadFile",
      "outputs": [],
      "stateMutability": "nonpayable",
      "type": "function"
    }
  ],
  "bytecode": "0x608060405234801561001057600080fd5b50336000806101000a81548173ffffffffffffffffffffffffffffffffffffffff021916908373ffffffffffffffffffffffffffffffffffffffff16021790555061253d806100606000396000f3fe608060405234801561001057600080fd5b506004361061009e5760003560e01c806387fddb321161006657806387fddb32146101595780638da5cb5b14610189578063955cdbeb146101a7578063a3373a89146101d7578063fbebf5df146101f35761009e565b80631bc9d8a4146100a35780632fd4f85c146100c1578063523dd93e146100f15780635bab3ba11461010d5780636a33727c1461013d575b600080fd5b6100ab61022a565b6040516100b89190611495565b60405180910390f35b6100db60048036038101906100d6919061154e565b610230565b6040516100e891906115a9565b60405180910390f35b61010b600480360381019061010691906117d2565b610787565b005b61012760048036038101906101229190611938565b610b61565b6040516101349190611a3f565b60405180910390f35b61015760048036038101906101529190611a61565b610c51565b005b610173600480360381019061016e9190611a61565b610d39565b60405161018091906115a9565b60405180910390f35b610191610d8f565b60405161019e9190611a9d565b60405180910390f35b6101c160048036038101906101bc9190611ab8565b610db3565b6040516101ce9190611ba3565b60405180910390f35b6101f160048036038101906101ec9190611a61565b610ea8565b005b61020d60048036038101906102089190611ab8565b610f91565b604051610221989796959493929190611c44565b60405180910390f35b60035481565b6000808311801561024357506003548311155b610282576040517f08c379a000000000000000000000000000000000000000000000000000000000815260040161027990611d38565b60405180910390fd5b600060026000858152602001908152602001600020604051806101200160405290816000820160009054906101000a900473ffffffffffffffffffffffffffffffffffffffff1673ffffffffffffffffffffffffffffffffffffffff1673ffffffffffffffffffffffffffffffffffffffff16815260200160018201805461030990611d87565b80601f016020809104026020016040519081016040528092919081815260200182805461033590611d87565b80156103825780601f1061035757610100808354040283529160200191610382565b820191906000526020600020905b81548152906001019060200180831161036557829003601f168201915b5050505050815260200160028201805461039b90611d87565b80601f01602080910402602001604051908101604052809291908181526020018280546103c790611d87565b80156104145780601f106103e957610100808354040283529160200191610414565b820191906000526020600020905b8154815290600101906020018083116103f757829003601f168201915b5050505050815260200160038201805461042d90611d87565b80601f016020809104026020016040519081016040528092919081815260200182805461045990611d87565b80156104a65780601f1061047b576101008083540402835291602001916104a6565b820191906000526020600020905b81548152906001019060200180831161048957829003601f168201915b505050505081526020016004820180546104bf90611d87565b80601f01602080910402602001604051908101604052809291908181526020018280546104eb90611d87565b80156105385780601f1061050d57610100808354040283529160200191610538565b820191906000526020600020905b81548152906001019060200180831161051b57829003601f168201915b5050505050815260200160058201805461055190611d87565b80601f016020809104026020016040519081016040528092919081815260200182805461057d90611d87565b80156105ca5780601f1061059f576101008083540402835291602001916105ca565b820191906000526020600020905b8154815290600101906020018083116105ad57829003601f168201915b505050505081526020016006820180546105e390611d87565b80601f016020809104026020016040519081016040528092919081815260200182805461060f90611d87565b801561065c5780601f106106315761010080835404028352916020019161065c565b820191906000526020600020905b81548152906001019060200180831161063f57829003601f168201915b5050505050815260200160078201548152602001600882018054806020026020016040519081016040528092919081815260200182805480156106f457602002820191906000526020600020905b8160009054906101000a900473ffffffffffffffffffffffffffffffffffffffff1673ffffffffffffffffffffffffffffffffffffffff16815260200190600101908083116106aa575b505050505081525050905060005b8161010001515181101561077a578373ffffffffffffffffffffffffffffffffffffffff16826101000151828151811061073f5761073e611db8565b5b602002602001015173ffffffffffffffffffffffffffffffffffffffff160361076d57600192505050610781565b8080600101915050610702565b5060009150505b92915050565b600160003373ffffffffffffffffffffffffffffffffffffffff1673ffffffffffffffffffffffffffffffffffffffff16815260200190815260200160002060009054906101000a900460ff16610813576040517f08c379a000000000000000000000000000000000000000000000000000000000815260040161080a90611e59565b60405180910390fd5b6000875111610857576040517f08c379a000000000000000000000000000000000000000000000000000000000815260040161084e90611ec5565b60405180910390fd5b600081511161089b576040517f08c379a000000000000000000000000000000000000000000000000000000000815260040161089290611f57565b60405180910390fd5b60005b815181101561097f5760006001826108b69190611fa6565b90505b8251811015610971578281815181106108d5576108d4611db8565b5b602002602001015173ffffffffffffffffffffffffffffffffffffffff1683838151811061090657610905611db8565b5b602002602001015173ffffffffffffffffffffffffffffffffffffffff1603610964576040517f08c379a000000000000000000000000000000000000000000000000000000000815260040161095b90612026565b60405180910390fd5b80806001019150506108b9565b50808060010191505061089e565b506003600081548092919061099390612046565b91905055506040518061012001604052803373ffffffffffffffffffffffffffffffffffffffff1681526020018881526020018781526020018681526020018581526020018481526020018381526020014281526020018281525060026000600354815260200190815260200160002060008201518160000160006101000a81548173ffffffffffffffffffffffffffffffffffffffff021916908373ffffffffffffffffffffffffffffffffffffffff1602179055506020820151816001019081610a5f919061223a565b506040820151816002019081610a75919061223a565b506060820151816003019081610a8b919061223a565b506080820151816004019081610aa1919061223a565b5060a0820151816005019081610ab7919061223a565b5060c0820151816006019081610acd919061223a565b5060e08201518160070155610100820151816008019080519060200190610af59291906113d5565b509050506003543373ffffffffffffffffffffffffffffffffffffffff167f54fb8dd4614293967e8e7b3b03b9d368553830418f8b1624659b809d6dfba0ea898989898989428a604051610b5098979695949392919061230c565b60405180910390a350505050505050565b6060600060035467ffffffffffffffff811115610b8157610b806115df565b5b604051908082528060200260200182016040528015610baf5781602001602082028036833780820191505090505b509050600080600190505b6003548111610c3d57848051906020012060026000838152602001908152602001600020600201604051610bee919061245e565b604051809103902003610c2a5780838381518110610c0f57610c0e611db8565b5b6020026020010181815250508180610c2690612046565b9250505b8080610c3590612046565b915050610bba565b50610c488282611329565b92505050919050565b60008054906101000a900473ffffffffffffffffffffffffffffffffffffffff1673ffffffffffffffffffffffffffffffffffffffff163373ffffffffffffffffffffffffffffffffffffffff1614610cdf576040517f08c379a0000000000000000000000000000000000000000000000000000000008152600401610cd6906124e7565b60405180910390fd5b60018060008373ffffffffffffffffffffffffffffffffffffffff1673ffffffffffffffffffffffffffffffffffffffff16815260200190815260200160002060006101000a81548160ff02191690831515021790555050565b6000600160008373ffffffffffffffffffffffffffffffffffffffff1673ffffffffffffffffffffffffffffffffffffffff16815260200190815260200160002060009054906101000a900460ff169050919050565b60008054906101000a900473ffffffffffffffffffffffffffffffffffffffff1681565b6060600082118015610dc757506003548211155b610e06576040517f08c379a0000000000000000000000000000000000000000000000000000000008152600401610dfd90611d38565b60405180910390fd5b60026000838152602001908152602001600020600801805480602002602001604051908101604052809291908181526020018280548015610e9c57602002820191906000526020600020905b8160009054906101000a900473ffffffffffffffffffffffffffffffffffffffff1673ffffffffffffffffffffffffffffffffffffffff1681526020019060010190808311610e52575b50505050509050919050565b60008054906101000a900473ffffffffffffffffffffffffffffffffffffffff1673ffffffffffffffffffffffffffffffffffffffff163373ffffffffffffffffffffffffffffffffffffffff1614610f36576040517f08c379a0000000000000000000000000000000000000000000000000000000008152600401610f2d906124e7565b60405180910390fd5b6000600160008373ffffffffffffffffffffffffffffffffffffffff1673ffffffffffffffffffffffffffffffffffffffff16815260200190815260200160002060006101000a81548160ff02191690831515021790555050565b60026020528060005260406000206000915090508060000160009054906101000a900473ffffffffffffffffffffffffffffffffffffffff1690806001018054610fda90611d87565b80601f016020809104026020016040519081016040528092919081815260200182805461100690611d87565b80156110535780601f1061102857610100808354040283529160200191611053565b820191906000526020600020905b81548152906001019060200180831161103657829003601f168201915b50505050509080600201805461106890611d87565b80601f016020809104026020016040519081016040528092919081815260200182805461109490611d87565b80156110e15780601f106110b6576101008083540402835291602001916110e1565b820191906000526020600020905b8154815290600101906020018083116110c457829003601f168201915b5050505050908060030180546110f690611d87565b80601f016020809104026020016040519081016040528092919081815260200182805461112290611d87565b801561116f5780601f106111445761010080835404028352916020019161116f565b820191906000526020600020905b81548152906001019060200180831161115257829003601f168201915b50505050509080600401805461118490611d87565b80601f01602080910402602001604051908101604052809291908181526020018280546111b090611d87565b80156111fd5780601f106111d2576101008083540402835291602001916111fd565b820191906000526020600020905b8154815290600101906020018083116111e057829003601f168201915b50505050509080600501805461121290611d87565b80601f016020809104026020016040519081016040528092919081815260200182805461123e90611d87565b801561128b5780601f106112605761010080835404028352916020019161128b565b820191906000526020600020905b81548152906001019060200180831161126e57829003601f168201915b5050505050908060060180546112a090611d87565b80601f01602080910402602001604051908101604052809291908181526020018280546112cc90611d87565b80156113195780601f106112ee57610100808354040283529160200191611319565b820191906000526020600020905b8154815290600101906020018083116112fc57829003601f168201915b5050505050908060070154905088565b606060008267ffffffffffffffff811115611347576113466115df565b5b6040519080825280602002602001820160405280156113755781602001602082028036833780820191505090505b50905060005b838110156113ca5784818151811061139657611395611db8565b5b60200260200101518282815181106113b1576113b0611db8565b5b602002602001018181525050808060010191505061137b565b508091505092915050565b82805482825590600052602060002090810192821561144e579160200282015b8281111561144d5782518260006101000a81548173ffffffffffffffffffffffffffffffffffffffff021916908373ffffffffffffffffffffffffffffffffffffffff160217905550916020019190600101906113f5565b5b50905061145b919061145f565b5090565b5b80821115611478576000816000905550600101611460565b5090565b6000819050919050565b61148f8161147c565b82525050565b60006020820190506114aa6000830184611486565b92915050565b6000604051905090565b600080fd5b600080fd5b6114cd8161147c565b81146114d857600080fd5b50565b6000813590506114ea816114c4565b92915050565b600073ffffffffffffffffffffffffffffffffffffffff82169050919050565b600061151b826114f0565b9050919050565b61152b81611510565b811461153657600080fd5b50565b60008135905061154881611522565b92915050565b60008060408385031215611565576115646114ba565b5b6000611573858286016114db565b925050602061158485828601611539565b9150509250929050565b60008115159050919050565b6115a38161158e565b82525050565b60006020820190506115be600083018461159a565b92915050565b600080fd5b600080fd5b6000601f19601f8301169050919050565b7f4e487b7100000000000000000000000000000000000000000000000000000000600052604160045260246000fd5b611617826115ce565b810181811067ffffffffffffffff82111715611636576116356115df565b5b80604052505050565b60006116496114b0565b9050611655828261160e565b919050565b600067ffffffffffffffff821115611675576116746115df565b5b61167e826115ce565b9050602081019050919050565b82818337600083830152505050565b60006116ad6116a88461165a565b61163f565b9050828152602081018484840111156116c9576116c86115c9565b5b6116d484828561168b565b509392505050565b600082601f8301126116f1576116f06115c4565b5b813561170184826020860161169a565b91505092915050565b600067ffffffffffffffff821115611725576117246115df565b5b602082029050602081019050919050565b600080fd5b600061174e6117498461170a565b61163f565b9050808382526020820190506020840283018581111561177157611770611736565b5b835b8181101561179a57806117868882611539565b845260208401935050602081019050611773565b5050509392505050565b600082601f8301126117b9576117b86115c4565b5b81356117c984826020860161173b565b91505092915050565b600080600080600080600060e0888a0312156117f1576117f06114ba565b5b600088013567ffffffffffffffff81111561180f5761180e6114bf565b5b61181b8a828b016116dc565b975050602088013567ffffffffffffffff81111561183c5761183b6114bf565b5b6118488a828b016116dc565b965050604088013567ffffffffffffffff811115611869576118686114bf565b5b6118758a828b016116dc565b955050606088013567ffffffffffffffff811115611896576118956114bf565b5b6118a28a828b016116dc565b945050608088013567ffffffffffffffff8111156118c3576118c26114bf565b5b6118cf8a828b016116dc565b93505060a088013567ffffffffffffffff8111156118f0576118ef6114bf565b5b6118fc8a828b016116dc565b92505060c088013567ffffffffffffffff81111561191d5761191c6114bf565b5b6119298a828b016117a4565b91505092959891949750929550565b60006020828403121561194e5761194d6114ba565b5b600082013567ffffffffffffffff81111561196c5761196b6114bf565b5b611978848285016116dc565b91505092915050565b600081519050919050565b600082825260208201905092915050565b6000819050602082019050919050565b6119b68161147c565b82525050565b60006119c883836119ad565b60208301905092915050565b6000602082019050919050565b60006119ec82611981565b6119f6818561198c565b9350611a018361199d565b8060005b83811015611a32578151611a1988826119bc565b9750611a24836119d4565b925050600181019050611a05565b5085935050505092915050565b60006020820190508181036000830152611a5981846119e1565b905092915050565b600060208284031215611a7757611a766114ba565b5b6000611a8584828501611539565b91505092915050565b611a9781611510565b82525050565b6000602082019050611ab26000830184611a8e565b92915050565b600060208284031215611ace57611acd6114ba565b5b6000611adc848285016114db565b91505092915050565b600081519050919050565b600082825260208201905092915050565b6000819050602082019050919050565b611b1a81611510565b82525050565b6000611b2c8383611b11565b60208301905092915050565b6000602082019050919050565b6000611b5082611ae5565b611b5a8185611af0565b9350611b6583611b01565b8060005b83811015611b96578151611b7d8882611b20565b9750611b8883611b38565b925050600181019050611b69565b5085935050505092915050565b60006020820190508181036000830152611bbd8184611b45565b905092915050565b600081519050919050565b600082825260208201905092915050565b60005b83811015611bff578082015181840152602081019050611be4565b60008484015250505050565b6000611c1682611bc5565b611c208185611bd0565b9350611c30818560208601611be1565b611c39816115ce565b840191505092915050565b600061010082019050611c5a600083018b611a8e565b8181036020830152611c6c818a611c0b565b90508181036040830152611c808189611c0b565b90508181036060830152611c948188611c0b565b90508181036080830152611ca88187611c0b565b905081810360a0830152611cbc8186611c0b565b905081810360c0830152611cd08185611c0b565b9050611cdf60e0830184611486565b9998505050505050505050565b7f496e76616c69642066696c652049440000000000000000000000000000000000600082015250565b6000611d22600f83611bd0565b9150611d2d82611cec565b602082019050919050565b60006020820190508181036000830152611d5181611d15565b9050919050565b7f4e487b7100000000000000000000000000000000000000000000000000000000600052602260045260246000fd5b60006002820490506001821680611d9f57607f821691505b602082108103611db257611db1611d58565b5b50919050565b7f4e487b7100000000000000000000000000000000000000000000000000000000600052603260045260246000fd5b7f4f6e6c7920636f757274206f6666696369616c732063616e2075706c6f61642060008201527f66696c6573000000000000000000000000000000000000000000000000000000602082015250565b6000611e43602583611bd0565b9150611e4e82611de7565b604082019050919050565b60006020820190508181036000830152611e7281611e36565b9050919050565b7f4950465320686173682069732072657175697265640000000000000000000000600082015250565b6000611eaf601583611bd0565b9150611eba82611e79565b602082019050919050565b60006020820190508181036000830152611ede81611ea2565b9050919050565b7f4174206c65617374206f6e6520636c69656e74206d757374206265206c696e6b60008201527f6564000000000000000000000000000000000000000000000000000000000000602082015250565b6000611f41602283611bd0565b9150611f4c82611ee5565b604082019050919050565b60006020820190508181036000830152611f7081611f34565b9050919050565b7f4e487b7100000000000000000000000000000000000000000000000000000000600052601160045260246000fd5b6000611fb18261147c565b9150611fbc8361147c565b9250828201905080821115611fd457611fd3611f77565b5b92915050565b7f436c69656e7420616464726573736573206d75737420626520756e6971756500600082015250565b6000612010601f83611bd0565b915061201b82611fda565b602082019050919050565b6000602082019050818103600083015261203f81612003565b9050919050565b60006120518261147c565b91507fffffffffffffffffffffffffffffffffffffffffffffffffffffffffffffffff820361208357612082611f77565b5b600182019050919050565b60008190508160005260206000209050919050565b60006020601f8301049050919050565b600082821b905092915050565b6000600883026120f07fffffffffffffffffffffffffffffffffffffffffffffffffffffffffffffffff826120b3565b6120fa86836120b3565b95508019841693508086168417925050509392505050565b6000819050919050565b600061213761213261212d8461147c565b612112565b61147c565b9050919050565b6000819050919050565b6121518361211c565b61216561215d8261213e565b8484546120c0565b825550505050565b600090565b61217a61216d565b612185818484612148565b505050565b5b818110156121a95761219e600082612172565b60018101905061218b565b5050565b601f8211156121ee576121bf8161208e565b6121c8846120a3565b810160208510156121d7578190505b6121eb6121e3856120a3565b83018261218a565b50505b505050565b600082821c905092915050565b6000612211600019846008026121f3565b1980831691505092915050565b600061222a8383612200565b9150826002028217905092915050565b61224382611bc5565b67ffffffffffffffff81111561225c5761225b6115df565b5b6122668254611d87565b6122718282856121ad565b600060209050601f8311600181146122a45760008415612292578287015190505b61229c858261221e565b865550612304565b601f1984166122b28661208e565b60005b828110156122da578489015182556001820191506020850194506020810190506122b5565b868310156122f757848901516122f3601f891682612200565b8355505b6001600288020188555050505b505050505050565b6000610100820190508181036000830152612327818b611c0b565b9050818103602083015261233b818a611c0b565b9050818103604083015261234f8189611c0b565b905081810360608301526123638188611c0b565b905081810360808301526123778187611c0b565b905081810360a083015261238b8186611c0b565b905061239a60c0830185611486565b81810360e08301526123ac8184611b45565b90509998505050505050505050565b600081905092915050565b60008190508160005260206000209050919050565b600081546123e881611d87565b6123f281866123bb565b9450600182166000811461240d576001811461242257612455565b60ff1983168652811515820286019350612455565b61242b856123c6565b60005b8381101561244d5781548189015260018201915060208101905061242e565b838801955050505b50505092915050565b600061246a82846123db565b915081905092915050565b7f4f6e6c7920746865206f776e65722063616e20706572666f726d20746869732060008201527f616374696f6e0000000000000000000000000000000000000000000000000000602082015250565b60006124d1602683611bd0565b91506124dc82612475565b604082019050919050565b60006020820190508181036000830152612500816124c4565b905091905056fea2646970667358221220d326a075f5c520a12c5c08529377e2160129fa38e26bbb6decd9e6cf51c3d61164736f6c63430008180033",
  "linkReferences": {},
  "deployedLinkReferences": {}
}