{
  "_format": "hh-sol-artifact-1",
  "contractName": "NewEVault",
  "sourceName": "contracts/NewEvault.sol",
  "abi": [
    {
      "inputs": [],
      "stateMutability": "nonpayable",
      "type": "constructor"
    },
    {
      "anonymous": false,
      "inputs": [
        {
          "indexed": true,
          "internalType": "address",
          "name": "uploader",
          "type": "address"
        },
        {
          "indexed": true,
          "internalType": "uint256",
          "name": "fileId",
          "type": "uint256"
        },
        {
          "indexed": false,
          "internalType": "string",
          "name": "ipfsHash",
          "type": "string"
        },
        {
          "indexed": false,
          "internalType": "string",
          "name": "title",
          "type": "string"
        },
        {
          "indexed": false,
          "internalType": "string",
          "name": "dateOfJudgment",
          "type": "string"
        },
        {
          "indexed": false,
          "internalType": "string",
          "name": "caseNumber",
          "type": "string"
        },
        {
          "indexed": false,
          "internalType": "string",
          "name": "category",
          "type": "string"
        },
        {
          "indexed": false,
          "internalType": "string",
          "name": "judgeName",
          "type": "string"
        },
        {
          "indexed": false,
          "internalType": "uint256",
          "name": "timestamp",
          "type": "uint256"
        }
      ],
      "name": "FileUploaded",
      "type": "event"
    },
    {
      "inputs": [
        {
          "internalType": "address",
          "name": "_official",
          "type": "address"
        }
      ],
      "name": "addCourtOfficial",
      "outputs": [],
      "stateMutability": "nonpayable",
      "type": "function"
    },
    {
      "inputs": [
        {
          "internalType": "uint256",
          "name": "",
          "type": "uint256"
        }
      ],
      "name": "caseFiles",
      "outputs": [
        {
          "internalType": "address",
          "name": "uploader",
          "type": "address"
        },
        {
          "internalType": "string",
          "name": "ipfsHash",
          "type": "string"
        },
        {
          "internalType": "string",
          "name": "title",
          "type": "string"
        },
        {
          "internalType": "string",
          "name": "dateOfJudgment",
          "type": "string"
        },
        {
          "internalType": "string",
          "name": "caseNumber",
          "type": "string"
        },
        {
          "internalType": "string",
          "name": "category",
          "type": "string"
        },
        {
          "internalType": "string",
          "name": "judgeName",
          "type": "string"
        },
        {
          "internalType": "uint256",
          "name": "timestamp",
          "type": "uint256"
        }
      ],
      "stateMutability": "view",
      "type": "function"
    },
    {
      "inputs": [
        {
          "internalType": "address",
          "name": "_official",
          "type": "address"
        }
      ],
      "name": "isCourtOfficial",
      "outputs": [
        {
          "internalType": "bool",
          "name": "",
          "type": "bool"
        }
      ],
      "stateMutability": "view",
      "type": "function"
    },
    {
      "inputs": [],
      "name": "owner",
      "outputs": [
        {
          "internalType": "address",
          "name": "",
          "type": "address"
        }
      ],
      "stateMutability": "view",
      "type": "function"
    },
    {
      "inputs": [
        {
          "internalType": "address",
          "name": "_official",
          "type": "address"
        }
      ],
      "name": "removeCourtOfficial",
      "outputs": [],
      "stateMutability": "nonpayable",
      "type": "function"
    },
    {
      "inputs": [
        {
          "internalType": "string",
          "name": "_title",
          "type": "string"
        }
      ],
      "name": "searchByTitle",
      "outputs": [
        {
          "internalType": "uint256[]",
          "name": "",
          "type": "uint256[]"
        }
      ],
      "stateMutability": "view",
      "type": "function"
    },
    {
      "inputs": [],
      "name": "totalCaseFiles",
      "outputs": [
        {
          "internalType": "uint256",
          "name": "",
          "type": "uint256"
        }
      ],
      "stateMutability": "view",
      "type": "function"
    },
    {
      "inputs": [
        {
          "internalType": "string",
          "name": "_ipfsHash",
          "type": "string"
        },
        {
          "internalType": "string",
          "name": "_title",
          "type": "string"
        },
        {
          "internalType": "string",
          "name": "_dateOfJudgment",
          "type": "string"
        },
        {
          "internalType": "string",
          "name": "_caseNumber",
          "type": "string"
        },
        {
          "internalType": "string",
          "name": "_category",
          "type": "string"
        },
        {
          "internalType": "string",
          "name": "_judgeName",
          "type": "string"
        }
      ],
      "name": "uploadFile",
      "outputs": [],
      "stateMutability": "nonpayable",
      "type": "function"
    }
  ],
  "bytecode": "0x608060405234801561001057600080fd5b50336000806101000a81548173ffffffffffffffffffffffffffffffffffffffff021916908373ffffffffffffffffffffffffffffffffffffffff1602179055506118b7806100606000396000f3fe608060405234801561001057600080fd5b50600436106100885760003560e01c80638da5cb5b1161005b5780638da5cb5b14610127578063a3373a8914610145578063bb5806b714610161578063fbebf5df1461017d57610088565b80631bc9d8a41461008d5780635bab3ba1146100ab5780636a33727c146100db57806387fddb32146100f7575b600080fd5b6100956101b4565b6040516100a29190610bdc565b60405180910390f35b6100c560048036038101906100c09190610d51565b6101ba565b6040516100d29190610e58565b60405180910390f35b6100f560048036038101906100f09190610ed8565b6102aa565b005b610111600480360381019061010c9190610ed8565b610392565b60405161011e9190610f20565b60405180910390f35b61012f6103e8565b60405161013c9190610f4a565b60405180910390f35b61015f600480360381019061015a9190610ed8565b61040c565b005b61017b60048036038101906101769190610f65565b6104f5565b005b610197600480360381019061019291906110c6565b61077f565b6040516101ab989796959493929190611172565b60405180910390f35b60035481565b6060600060035467ffffffffffffffff8111156101da576101d9610c26565b5b6040519080825280602002602001820160405280156102085781602001602082028036833780820191505090505b509050600080600190505b600354811161029657848051906020012060026000838152602001908152602001600020600201604051610247919061131d565b604051809103902003610283578083838151811061026857610267611334565b5b602002602001018181525050818061027f90611392565b9250505b808061028e90611392565b915050610213565b506102a18282610b17565b92505050919050565b60008054906101000a900473ffffffffffffffffffffffffffffffffffffffff1673ffffffffffffffffffffffffffffffffffffffff163373ffffffffffffffffffffffffffffffffffffffff1614610338576040517f08c379a000000000000000000000000000000000000000000000000000000000815260040161032f9061144c565b60405180910390fd5b60018060008373ffffffffffffffffffffffffffffffffffffffff1673ffffffffffffffffffffffffffffffffffffffff16815260200190815260200160002060006101000a81548160ff02191690831515021790555050565b6000600160008373ffffffffffffffffffffffffffffffffffffffff1673ffffffffffffffffffffffffffffffffffffffff16815260200190815260200160002060009054906101000a900460ff169050919050565b60008054906101000a900473ffffffffffffffffffffffffffffffffffffffff1681565b60008054906101000a900473ffffffffffffffffffffffffffffffffffffffff1673ffffffffffffffffffffffffffffffffffffffff163373ffffffffffffffffffffffffffffffffffffffff161461049a576040517f08c379a00000000000000000000000000000000000000000000000000000000081526004016104919061144c565b60405180910390fd5b6000600160008373ffffffffffffffffffffffffffffffffffffffff1673ffffffffffffffffffffffffffffffffffffffff16815260200190815260200160002060006101000a81548160ff02191690831515021790555050565b600160003373ffffffffffffffffffffffffffffffffffffffff1673ffffffffffffffffffffffffffffffffffffffff16815260200190815260200160002060009054906101000a900460ff16610581576040517f08c379a0000000000000000000000000000000000000000000000000000000008152600401610578906114de565b60405180910390fd5b60008651116105c5576040517f08c379a00000000000000000000000000000000000000000000000000000000081526004016105bc9061154a565b60405180910390fd5b600360008154809291906105d890611392565b91905055506040518061010001604052803373ffffffffffffffffffffffffffffffffffffffff1681526020018781526020018681526020018581526020018481526020018381526020018281526020014281525060026000600354815260200190815260200160002060008201518160000160006101000a81548173ffffffffffffffffffffffffffffffffffffffff021916908373ffffffffffffffffffffffffffffffffffffffff160217905550602082015181600101908161069e9190611716565b5060408201518160020190816106b49190611716565b5060608201518160030190816106ca9190611716565b5060808201518160040190816106e09190611716565b5060a08201518160050190816106f69190611716565b5060c082015181600601908161070c9190611716565b5060e082015181600701559050506003543373ffffffffffffffffffffffffffffffffffffffff167f9b023aa1ebc178c22417a31b610014e18f344039d7158493452037530b131b2d8888888888884260405161076f97969594939291906117e8565b60405180910390a3505050505050565b60026020528060005260406000206000915090508060000160009054906101000a900473ffffffffffffffffffffffffffffffffffffffff16908060010180546107c890611249565b80601f01602080910402602001604051908101604052809291908181526020018280546107f490611249565b80156108415780601f1061081657610100808354040283529160200191610841565b820191906000526020600020905b81548152906001019060200180831161082457829003601f168201915b50505050509080600201805461085690611249565b80601f016020809104026020016040519081016040528092919081815260200182805461088290611249565b80156108cf5780601f106108a4576101008083540402835291602001916108cf565b820191906000526020600020905b8154815290600101906020018083116108b257829003601f168201915b5050505050908060030180546108e490611249565b80601f016020809104026020016040519081016040528092919081815260200182805461091090611249565b801561095d5780601f106109325761010080835404028352916020019161095d565b820191906000526020600020905b81548152906001019060200180831161094057829003601f168201915b50505050509080600401805461097290611249565b80601f016020809104026020016040519081016040528092919081815260200182805461099e90611249565b80156109eb5780601f106109c0576101008083540402835291602001916109eb565b820191906000526020600020905b8154815290600101906020018083116109ce57829003601f168201915b505050505090806005018054610a0090611249565b80601f0160208091040260200160405190810160405280929190818152602001828054610a2c90611249565b8015610a795780601f10610a4e57610100808354040283529160200191610a79565b820191906000526020600020905b815481529060010190602001808311610a5c57829003601f168201915b505050505090806006018054610a8e90611249565b80601f0160208091040260200160405190810160405280929190818152602001828054610aba90611249565b8015610b075780601f10610adc57610100808354040283529160200191610b07565b820191906000526020600020905b815481529060010190602001808311610aea57829003601f168201915b5050505050908060070154905088565b606060008267ffffffffffffffff811115610b3557610b34610c26565b5b604051908082528060200260200182016040528015610b635781602001602082028036833780820191505090505b50905060005b83811015610bb857848181518110610b8457610b83611334565b5b6020026020010151828281518110610b9f57610b9e611334565b5b6020026020010181815250508080600101915050610b69565b508091505092915050565b6000819050919050565b610bd681610bc3565b82525050565b6000602082019050610bf16000830184610bcd565b92915050565b6000604051905090565b600080fd5b600080fd5b600080fd5b600080fd5b6000601f19601f8301169050919050565b7f4e487b7100000000000000000000000000000000000000000000000000000000600052604160045260246000fd5b610c5e82610c15565b810181811067ffffffffffffffff82111715610c7d57610c7c610c26565b5b80604052505050565b6000610c90610bf7565b9050610c9c8282610c55565b919050565b600067ffffffffffffffff821115610cbc57610cbb610c26565b5b610cc582610c15565b9050602081019050919050565b82818337600083830152505050565b6000610cf4610cef84610ca1565b610c86565b905082815260208101848484011115610d1057610d0f610c10565b5b610d1b848285610cd2565b509392505050565b600082601f830112610d3857610d37610c0b565b5b8135610d48848260208601610ce1565b91505092915050565b600060208284031215610d6757610d66610c01565b5b600082013567ffffffffffffffff811115610d8557610d84610c06565b5b610d9184828501610d23565b91505092915050565b600081519050919050565b600082825260208201905092915050565b6000819050602082019050919050565b610dcf81610bc3565b82525050565b6000610de18383610dc6565b60208301905092915050565b6000602082019050919050565b6000610e0582610d9a565b610e0f8185610da5565b9350610e1a83610db6565b8060005b83811015610e4b578151610e328882610dd5565b9750610e3d83610ded565b925050600181019050610e1e565b5085935050505092915050565b60006020820190508181036000830152610e728184610dfa565b905092915050565b600073ffffffffffffffffffffffffffffffffffffffff82169050919050565b6000610ea582610e7a565b9050919050565b610eb581610e9a565b8114610ec057600080fd5b50565b600081359050610ed281610eac565b92915050565b600060208284031215610eee57610eed610c01565b5b6000610efc84828501610ec3565b91505092915050565b60008115159050919050565b610f1a81610f05565b82525050565b6000602082019050610f356000830184610f11565b92915050565b610f4481610e9a565b82525050565b6000602082019050610f5f6000830184610f3b565b92915050565b60008060008060008060c08789031215610f8257610f81610c01565b5b600087013567ffffffffffffffff811115610fa057610f9f610c06565b5b610fac89828a01610d23565b965050602087013567ffffffffffffffff811115610fcd57610fcc610c06565b5b610fd989828a01610d23565b955050604087013567ffffffffffffffff811115610ffa57610ff9610c06565b5b61100689828a01610d23565b945050606087013567ffffffffffffffff81111561102757611026610c06565b5b61103389828a01610d23565b935050608087013567ffffffffffffffff81111561105457611053610c06565b5b61106089828a01610d23565b92505060a087013567ffffffffffffffff81111561108157611080610c06565b5b61108d89828a01610d23565b9150509295509295509295565b6110a381610bc3565b81146110ae57600080fd5b50565b6000813590506110c08161109a565b92915050565b6000602082840312156110dc576110db610c01565b5b60006110ea848285016110b1565b91505092915050565b600081519050919050565b600082825260208201905092915050565b60005b8381101561112d578082015181840152602081019050611112565b60008484015250505050565b6000611144826110f3565b61114e81856110fe565b935061115e81856020860161110f565b61116781610c15565b840191505092915050565b600061010082019050611188600083018b610f3b565b818103602083015261119a818a611139565b905081810360408301526111ae8189611139565b905081810360608301526111c28188611139565b905081810360808301526111d68187611139565b905081810360a08301526111ea8186611139565b905081810360c08301526111fe8185611139565b905061120d60e0830184610bcd565b9998505050505050505050565b7f4e487b7100000000000000000000000000000000000000000000000000000000600052602260045260246000fd5b6000600282049050600182168061126157607f821691505b6020821081036112745761127361121a565b5b50919050565b600081905092915050565b60008190508160005260206000209050919050565b600081546112a781611249565b6112b1818661127a565b945060018216600081146112cc57600181146112e157611314565b60ff1983168652811515820286019350611314565b6112ea85611285565b60005b8381101561130c578154818901526001820191506020810190506112ed565b838801955050505b50505092915050565b6000611329828461129a565b915081905092915050565b7f4e487b7100000000000000000000000000000000000000000000000000000000600052603260045260246000fd5b7f4e487b7100000000000000000000000000000000000000000000000000000000600052601160045260246000fd5b600061139d82610bc3565b91507fffffffffffffffffffffffffffffffffffffffffffffffffffffffffffffffff82036113cf576113ce611363565b5b600182019050919050565b7f4f6e6c7920746865206f776e65722063616e20706572666f726d20746869732060008201527f616374696f6e0000000000000000000000000000000000000000000000000000602082015250565b60006114366026836110fe565b9150611441826113da565b604082019050919050565b6000602082019050818103600083015261146581611429565b9050919050565b7f4f6e6c7920636f757274206f6666696369616c732063616e2075706c6f61642060008201527f66696c6573000000000000000000000000000000000000000000000000000000602082015250565b60006114c86025836110fe565b91506114d38261146c565b604082019050919050565b600060208201905081810360008301526114f7816114bb565b9050919050565b7f4950465320686173682069732072657175697265640000000000000000000000600082015250565b60006115346015836110fe565b915061153f826114fe565b602082019050919050565b6000602082019050818103600083015261156381611527565b9050919050565b60008190508160005260206000209050919050565b60006020601f8301049050919050565b600082821b905092915050565b6000600883026115cc7fffffffffffffffffffffffffffffffffffffffffffffffffffffffffffffffff8261158f565b6115d6868361158f565b95508019841693508086168417925050509392505050565b6000819050919050565b600061161361160e61160984610bc3565b6115ee565b610bc3565b9050919050565b6000819050919050565b61162d836115f8565b6116416116398261161a565b84845461159c565b825550505050565b600090565b611656611649565b611661818484611624565b505050565b5b818110156116855761167a60008261164e565b600181019050611667565b5050565b601f8211156116ca5761169b8161156a565b6116a48461157f565b810160208510156116b3578190505b6116c76116bf8561157f565b830182611666565b50505b505050565b600082821c905092915050565b60006116ed600019846008026116cf565b1980831691505092915050565b600061170683836116dc565b9150826002028217905092915050565b61171f826110f3565b67ffffffffffffffff81111561173857611737610c26565b5b6117428254611249565b61174d828285611689565b600060209050601f831160018114611780576000841561176e578287015190505b61177885826116fa565b8655506117e0565b601f19841661178e8661156a565b60005b828110156117b657848901518255600182019150602085019450602081019050611791565b868310156117d357848901516117cf601f8916826116dc565b8355505b6001600288020188555050505b505050505050565b600060e0820190508181036000830152611802818a611139565b905081810360208301526118168189611139565b9050818103604083015261182a8188611139565b9050818103606083015261183e8187611139565b905081810360808301526118528186611139565b905081810360a08301526118668185611139565b905061187560c0830184610bcd565b9897505050505050505056fea264697066735822122090bb338ed8bab28b73a2c890938d31c37f613ae995c9eb039d936cad531d8eec64736f6c63430008180033",
  "linkReferences": {},
  "deployedLinkReferences": {}
}