{
  "_format": "hh-sol-artifact-1",
  "contractName": "vault",
  "sourceName": "contracts/Vault.sol",
  "abi": [
    {
      "inputs": [],
      "stateMutability": "nonpayable",
      "type": "constructor"
    },
    {
      "anonymous": false,
      "inputs": [
        {
          "indexed": true,
          "internalType": "uint256",
          "name": "fileId",
          "type": "uint256"
        },
        {
          "indexed": false,
          "internalType": "address",
          "name": "client",
          "type": "address"
        }
      ],
      "name": "ClientLinked",
      "type": "event"
    },
    {
      "anonymous": false,
      "inputs": [
        {
          "indexed": true,
          "internalType": "address",
          "name": "uploader",
          "type": "address"
        },
        {
          "indexed": true,
          "internalType": "uint256",
          "name": "fileId",
          "type": "uint256"
        },
        {
          "indexed": false,
          "internalType": "string",
          "name": "ipfsHash",
          "type": "string"
        },
        {
          "indexed": false,
          "internalType": "string",
          "name": "title",
          "type": "string"
        },
        {
          "indexed": false,
          "internalType": "string",
          "name": "dateOfJudgment",
          "type": "string"
        },
        {
          "indexed": false,
          "internalType": "string",
          "name": "caseNumber",
          "type": "string"
        },
        {
          "indexed": false,
          "internalType": "string",
          "name": "category",
          "type": "string"
        },
        {
          "indexed": false,
          "internalType": "string",
          "name": "judgeName",
          "type": "string"
        },
        {
          "indexed": false,
          "internalType": "uint256",
          "name": "timestamp",
          "type": "uint256"
        },
        {
          "indexed": false,
          "internalType": "address[]",
          "name": "linkedClients",
          "type": "address[]"
        }
      ],
      "name": "FileUploaded",
      "type": "event"
    },
    {
      "inputs": [
        {
          "internalType": "address",
          "name": "_official",
          "type": "address"
        }
      ],
      "name": "addCourtOfficial",
      "outputs": [],
      "stateMutability": "nonpayable",
      "type": "function"
    },
    {
      "inputs": [
        {
          "internalType": "uint256",
          "name": "",
          "type": "uint256"
        }
      ],
      "name": "caseFiles",
      "outputs": [
        {
          "internalType": "address",
          "name": "uploader",
          "type": "address"
        },
        {
          "internalType": "string",
          "name": "ipfsHash",
          "type": "string"
        },
        {
          "internalType": "string",
          "name": "title",
          "type": "string"
        },
        {
          "internalType": "string",
          "name": "dateOfJudgment",
          "type": "string"
        },
        {
          "internalType": "string",
          "name": "caseNumber",
          "type": "string"
        },
        {
          "internalType": "string",
          "name": "category",
          "type": "string"
        },
        {
          "internalType": "string",
          "name": "judgeName",
          "type": "string"
        },
        {
          "internalType": "uint256",
          "name": "timestamp",
          "type": "uint256"
        }
      ],
      "stateMutability": "view",
      "type": "function"
    },
    {
      "inputs": [
        {
          "internalType": "uint256",
          "name": "_fileId",
          "type": "uint256"
        }
      ],
      "name": "getFile",
      "outputs": [
        {
          "internalType": "address",
          "name": "uploader",
          "type": "address"
        },
        {
          "internalType": "string",
          "name": "ipfsHash",
          "type": "string"
        },
        {
          "internalType": "string",
          "name": "title",
          "type": "string"
        },
        {
          "internalType": "string",
          "name": "dateOfJudgment",
          "type": "string"
        },
        {
          "internalType": "string",
          "name": "caseNumber",
          "type": "string"
        },
        {
          "internalType": "string",
          "name": "category",
          "type": "string"
        },
        {
          "internalType": "string",
          "name": "judgeName",
          "type": "string"
        },
        {
          "internalType": "address[]",
          "name": "linkedClients",
          "type": "address[]"
        },
        {
          "internalType": "uint256",
          "name": "timestamp",
          "type": "uint256"
        }
      ],
      "stateMutability": "view",
      "type": "function"
    },
    {
      "inputs": [
        {
          "internalType": "address",
          "name": "_official",
          "type": "address"
        }
      ],
      "name": "isCourtOfficial",
      "outputs": [
        {
          "internalType": "bool",
          "name": "",
          "type": "bool"
        }
      ],
      "stateMutability": "view",
      "type": "function"
    },
    {
      "inputs": [
        {
          "internalType": "uint256",
          "name": "_fileId",
          "type": "uint256"
        },
        {
          "internalType": "address",
          "name": "_client",
          "type": "address"
        }
      ],
      "name": "linkClient",
      "outputs": [],
      "stateMutability": "nonpayable",
      "type": "function"
    },
    {
      "inputs": [],
      "name": "owner",
      "outputs": [
        {
          "internalType": "address",
          "name": "",
          "type": "address"
        }
      ],
      "stateMutability": "view",
      "type": "function"
    },
    {
      "inputs": [
        {
          "internalType": "address",
          "name": "_official",
          "type": "address"
        }
      ],
      "name": "removeCourtOfficial",
      "outputs": [],
      "stateMutability": "nonpayable",
      "type": "function"
    },
    {
      "inputs": [
        {
          "internalType": "string",
          "name": "_title",
          "type": "string"
        }
      ],
      "name": "searchByTitle",
      "outputs": [
        {
          "components": [
            {
              "internalType": "address",
              "name": "uploader",
              "type": "address"
            },
            {
              "internalType": "string",
              "name": "ipfsHash",
              "type": "string"
            },
            {
              "internalType": "string",
              "name": "title",
              "type": "string"
            },
            {
              "internalType": "string",
              "name": "dateOfJudgment",
              "type": "string"
            },
            {
              "internalType": "string",
              "name": "caseNumber",
              "type": "string"
            },
            {
              "internalType": "string",
              "name": "category",
              "type": "string"
            },
            {
              "internalType": "string",
              "name": "judgeName",
              "type": "string"
            },
            {
              "internalType": "address[]",
              "name": "linkedClients",
              "type": "address[]"
            },
            {
              "internalType": "uint256",
              "name": "timestamp",
              "type": "uint256"
            }
          ],
          "internalType": "struct vault.CaseFile[]",
          "name": "",
          "type": "tuple[]"
        }
      ],
      "stateMutability": "view",
      "type": "function"
    },
    {
      "inputs": [],
      "name": "totalCaseFiles",
      "outputs": [
        {
          "internalType": "uint256",
          "name": "",
          "type": "uint256"
        }
      ],
      "stateMutability": "view",
      "type": "function"
    },
    {
      "inputs": [
        {
          "internalType": "string",
          "name": "_ipfsHash",
          "type": "string"
        },
        {
          "internalType": "string",
          "name": "_title",
          "type": "string"
        },
        {
          "internalType": "string",
          "name": "_dateOfJudgment",
          "type": "string"
        },
        {
          "internalType": "string",
          "name": "_caseNumber",
          "type": "string"
        },
        {
          "internalType": "string",
          "name": "_category",
          "type": "string"
        },
        {
          "internalType": "string",
          "name": "_judgeName",
          "type": "string"
        },
        {
          "internalType": "address[]",
          "name": "_linkedClients",
          "type": "address[]"
        }
      ],
      "name": "uploadFile",
      "outputs": [],
      "stateMutability": "nonpayable",
      "type": "function"
    }
  ],
  "bytecode": "0x608060405234801561001057600080fd5b50336000806101000a81548173ffffffffffffffffffffffffffffffffffffffff021916908373ffffffffffffffffffffffffffffffffffffffff160217905550612c7e806100606000396000f3fe608060405234801561001057600080fd5b506004361061009e5760003560e01c806387fddb321161006657806387fddb32146101615780638da5cb5b146101915780639c590b2f146101af578063a3373a89146101cb578063fbebf5df146101e75761009e565b80631bc9d8a4146100a35780632bfda313146100c1578063523dd93e146100f95780635bab3ba1146101155780636a33727c14610145575b600080fd5b6100ab61021e565b6040516100b89190611980565b60405180910390f35b6100db60048036038101906100d691906119db565b610224565b6040516100f099989796959493929190611b97565b60405180910390f35b610113600480360381019061010e9190611e7e565b6106d0565b005b61012f600480360381019061012a9190611fe4565b6109c5565b60405161013c91906122a6565b60405180910390f35b61015f600480360381019061015a91906122c8565b610ff9565b005b61017b600480360381019061017691906122c8565b6110e1565b6040516101889190612310565b60405180910390f35b610199611137565b6040516101a6919061232b565b60405180910390f35b6101c960048036038101906101c49190612346565b61115b565b005b6101e560048036038101906101e091906122c8565b6113dd565b005b61020160048036038101906101fc91906119db565b6114c6565b604051610215989796959493929190612386565b60405180910390f35b60035481565b600060608060608060608060606000808a11801561024457506003548a11155b610283576040517f08c379a000000000000000000000000000000000000000000000000000000000815260040161027a9061247a565b60405180910390fd5b6000600260008c815260200190815260200160002090508060000160009054906101000a900473ffffffffffffffffffffffffffffffffffffffff168160010182600201836003018460040185600501866006018760070188600801548780546102ec906124c9565b80601f0160208091040260200160405190810160405280929190818152602001828054610318906124c9565b80156103655780601f1061033a57610100808354040283529160200191610365565b820191906000526020600020905b81548152906001019060200180831161034857829003601f168201915b50505050509750868054610378906124c9565b80601f01602080910402602001604051908101604052809291908181526020018280546103a4906124c9565b80156103f15780601f106103c6576101008083540402835291602001916103f1565b820191906000526020600020905b8154815290600101906020018083116103d457829003601f168201915b50505050509650858054610404906124c9565b80601f0160208091040260200160405190810160405280929190818152602001828054610430906124c9565b801561047d5780601f106104525761010080835404028352916020019161047d565b820191906000526020600020905b81548152906001019060200180831161046057829003601f168201915b50505050509550848054610490906124c9565b80601f01602080910402602001604051908101604052809291908181526020018280546104bc906124c9565b80156105095780601f106104de57610100808354040283529160200191610509565b820191906000526020600020905b8154815290600101906020018083116104ec57829003601f168201915b5050505050945083805461051c906124c9565b80601f0160208091040260200160405190810160405280929190818152602001828054610548906124c9565b80156105955780601f1061056a57610100808354040283529160200191610595565b820191906000526020600020905b81548152906001019060200180831161057857829003601f168201915b505050505093508280546105a8906124c9565b80601f01602080910402602001604051908101604052809291908181526020018280546105d4906124c9565b80156106215780601f106105f657610100808354040283529160200191610621565b820191906000526020600020905b81548152906001019060200180831161060457829003601f168201915b50505050509250818054806020026020016040519081016040528092919081815260200182805480156106a957602002820191906000526020600020905b8160009054906101000a900473ffffffffffffffffffffffffffffffffffffffff1673ffffffffffffffffffffffffffffffffffffffff168152602001906001019080831161065f575b50505050509150995099509950995099509950995099509950509193959799909294969850565b600160003373ffffffffffffffffffffffffffffffffffffffff1673ffffffffffffffffffffffffffffffffffffffff16815260200190815260200160002060009054906101000a900460ff1661075c576040517f08c379a00000000000000000000000000000000000000000000000000000000081526004016107539061256c565b60405180910390fd5b60008751116107a0576040517f08c379a0000000000000000000000000000000000000000000000000000000008152600401610797906125d8565b60405180910390fd5b60008151116107e4576040517f08c379a00000000000000000000000000000000000000000000000000000000081526004016107db9061266a565b60405180910390fd5b600360008154809291906107f7906126b9565b91905055506040518061012001604052803373ffffffffffffffffffffffffffffffffffffffff1681526020018881526020018781526020018681526020018581526020018481526020018381526020018281526020014281525060026000600354815260200190815260200160002060008201518160000160006101000a81548173ffffffffffffffffffffffffffffffffffffffff021916908373ffffffffffffffffffffffffffffffffffffffff16021790555060208201518160010190816108c391906128ad565b5060408201518160020190816108d991906128ad565b5060608201518160030190816108ef91906128ad565b50608082015181600401908161090591906128ad565b5060a082015181600501908161091b91906128ad565b5060c082015181600601908161093191906128ad565b5060e082015181600701908051906020019061094e92919061185e565b5061010082015181600801559050506003543373ffffffffffffffffffffffffffffffffffffffff167f54fb8dd4614293967e8e7b3b03b9d368553830418f8b1624659b809d6dfba0ea898989898989428a6040516109b498979695949392919061297f565b60405180910390a350505050505050565b6060600080600190505b6003548111610a6257836040516020016109e99190612a6a565b6040516020818303038152906040528051906020012060026000838152602001908152602001600020600201604051602001610a259190612b04565b6040516020818303038152906040528051906020012003610a4f578180610a4b906126b9565b9250505b8080610a5a906126b9565b9150506109cf565b5060008167ffffffffffffffff811115610a7f57610a7e611c5f565b5b604051908082528060200260200182016040528015610ab857816020015b610aa56118e8565b815260200190600190039081610a9d5790505b509050600080600190505b6003548111610fed5785604051602001610add9190612a6a565b6040516020818303038152906040528051906020012060026000838152602001908152602001600020600201604051602001610b199190612b04565b6040516020818303038152906040528051906020012003610fda5760026000828152602001908152602001600020604051806101200160405290816000820160009054906101000a900473ffffffffffffffffffffffffffffffffffffffff1673ffffffffffffffffffffffffffffffffffffffff1673ffffffffffffffffffffffffffffffffffffffff168152602001600182018054610bb9906124c9565b80601f0160208091040260200160405190810160405280929190818152602001828054610be5906124c9565b8015610c325780601f10610c0757610100808354040283529160200191610c32565b820191906000526020600020905b815481529060010190602001808311610c1557829003601f168201915b50505050508152602001600282018054610c4b906124c9565b80601f0160208091040260200160405190810160405280929190818152602001828054610c77906124c9565b8015610cc45780601f10610c9957610100808354040283529160200191610cc4565b820191906000526020600020905b815481529060010190602001808311610ca757829003601f168201915b50505050508152602001600382018054610cdd906124c9565b80601f0160208091040260200160405190810160405280929190818152602001828054610d09906124c9565b8015610d565780601f10610d2b57610100808354040283529160200191610d56565b820191906000526020600020905b815481529060010190602001808311610d3957829003601f168201915b50505050508152602001600482018054610d6f906124c9565b80601f0160208091040260200160405190810160405280929190818152602001828054610d9b906124c9565b8015610de85780601f10610dbd57610100808354040283529160200191610de8565b820191906000526020600020905b815481529060010190602001808311610dcb57829003601f168201915b50505050508152602001600582018054610e01906124c9565b80601f0160208091040260200160405190810160405280929190818152602001828054610e2d906124c9565b8015610e7a5780601f10610e4f57610100808354040283529160200191610e7a565b820191906000526020600020905b815481529060010190602001808311610e5d57829003601f168201915b50505050508152602001600682018054610e93906124c9565b80601f0160208091040260200160405190810160405280929190818152602001828054610ebf906124c9565b8015610f0c5780601f10610ee157610100808354040283529160200191610f0c565b820191906000526020600020905b815481529060010190602001808311610eef57829003601f168201915b5050505050815260200160078201805480602002602001604051908101604052809291908181526020018280548015610f9a57602002820191906000526020600020905b8160009054906101000a900473ffffffffffffffffffffffffffffffffffffffff1673ffffffffffffffffffffffffffffffffffffffff1681526020019060010190808311610f50575b50505050508152602001600882015481525050838381518110610fc057610fbf612b1b565b5b60200260200101819052508180610fd6906126b9565b9250505b8080610fe5906126b9565b915050610ac3565b50819350505050919050565b60008054906101000a900473ffffffffffffffffffffffffffffffffffffffff1673ffffffffffffffffffffffffffffffffffffffff163373ffffffffffffffffffffffffffffffffffffffff1614611087576040517f08c379a000000000000000000000000000000000000000000000000000000000815260040161107e90612bbc565b60405180910390fd5b60018060008373ffffffffffffffffffffffffffffffffffffffff1673ffffffffffffffffffffffffffffffffffffffff16815260200190815260200160002060006101000a81548160ff02191690831515021790555050565b6000600160008373ffffffffffffffffffffffffffffffffffffffff1673ffffffffffffffffffffffffffffffffffffffff16815260200190815260200160002060009054906101000a900460ff169050919050565b60008054906101000a900473ffffffffffffffffffffffffffffffffffffffff1681565b600160003373ffffffffffffffffffffffffffffffffffffffff1673ffffffffffffffffffffffffffffffffffffffff16815260200190815260200160002060009054906101000a900460ff166111e7576040517f08c379a00000000000000000000000000000000000000000000000000000000081526004016111de9061256c565b60405180910390fd5b6000821180156111f957506003548211155b611238576040517f08c379a000000000000000000000000000000000000000000000000000000000815260040161122f9061247a565b60405180910390fd5b60005b6002600084815260200190815260200160002060070180549050811015611329578173ffffffffffffffffffffffffffffffffffffffff1660026000858152602001908152602001600020600701828154811061129b5761129a612b1b565b5b9060005260206000200160009054906101000a900473ffffffffffffffffffffffffffffffffffffffff1673ffffffffffffffffffffffffffffffffffffffff160361131c576040517f08c379a000000000000000000000000000000000000000000000000000000000815260040161131390612c28565b60405180910390fd5b808060010191505061123b565b5060026000838152602001908152602001600020600701819080600181540180825580915050600190039060005260206000200160009091909190916101000a81548173ffffffffffffffffffffffffffffffffffffffff021916908373ffffffffffffffffffffffffffffffffffffffff160217905550817f83f7734d95fc3a4d03799a04b64d189f2cb486ac21a89b7448ffe04403713752826040516113d1919061232b565b60405180910390a25050565b60008054906101000a900473ffffffffffffffffffffffffffffffffffffffff1673ffffffffffffffffffffffffffffffffffffffff163373ffffffffffffffffffffffffffffffffffffffff161461146b576040517f08c379a000000000000000000000000000000000000000000000000000000000815260040161146290612bbc565b60405180910390fd5b6000600160008373ffffffffffffffffffffffffffffffffffffffff1673ffffffffffffffffffffffffffffffffffffffff16815260200190815260200160002060006101000a81548160ff02191690831515021790555050565b60026020528060005260406000206000915090508060000160009054906101000a900473ffffffffffffffffffffffffffffffffffffffff169080600101805461150f906124c9565b80601f016020809104026020016040519081016040528092919081815260200182805461153b906124c9565b80156115885780601f1061155d57610100808354040283529160200191611588565b820191906000526020600020905b81548152906001019060200180831161156b57829003601f168201915b50505050509080600201805461159d906124c9565b80601f01602080910402602001604051908101604052809291908181526020018280546115c9906124c9565b80156116165780601f106115eb57610100808354040283529160200191611616565b820191906000526020600020905b8154815290600101906020018083116115f957829003601f168201915b50505050509080600301805461162b906124c9565b80601f0160208091040260200160405190810160405280929190818152602001828054611657906124c9565b80156116a45780601f10611679576101008083540402835291602001916116a4565b820191906000526020600020905b81548152906001019060200180831161168757829003601f168201915b5050505050908060040180546116b9906124c9565b80601f01602080910402602001604051908101604052809291908181526020018280546116e5906124c9565b80156117325780601f1061170757610100808354040283529160200191611732565b820191906000526020600020905b81548152906001019060200180831161171557829003601f168201915b505050505090806005018054611747906124c9565b80601f0160208091040260200160405190810160405280929190818152602001828054611773906124c9565b80156117c05780601f10611795576101008083540402835291602001916117c0565b820191906000526020600020905b8154815290600101906020018083116117a357829003601f168201915b5050505050908060060180546117d5906124c9565b80601f0160208091040260200160405190810160405280929190818152602001828054611801906124c9565b801561184e5780601f106118235761010080835404028352916020019161184e565b820191906000526020600020905b81548152906001019060200180831161183157829003601f168201915b5050505050908060080154905088565b8280548282559060005260206000209081019282156118d7579160200282015b828111156118d65782518260006101000a81548173ffffffffffffffffffffffffffffffffffffffff021916908373ffffffffffffffffffffffffffffffffffffffff1602179055509160200191906001019061187e565b5b5090506118e4919061194a565b5090565b604051806101200160405280600073ffffffffffffffffffffffffffffffffffffffff16815260200160608152602001606081526020016060815260200160608152602001606081526020016060815260200160608152602001600081525090565b5b8082111561196357600081600090555060010161194b565b5090565b6000819050919050565b61197a81611967565b82525050565b60006020820190506119956000830184611971565b92915050565b6000604051905090565b600080fd5b600080fd5b6119b881611967565b81146119c357600080fd5b50565b6000813590506119d5816119af565b92915050565b6000602082840312156119f1576119f06119a5565b5b60006119ff848285016119c6565b91505092915050565b600073ffffffffffffffffffffffffffffffffffffffff82169050919050565b6000611a3382611a08565b9050919050565b611a4381611a28565b82525050565b600081519050919050565b600082825260208201905092915050565b60005b83811015611a83578082015181840152602081019050611a68565b60008484015250505050565b6000601f19601f8301169050919050565b6000611aab82611a49565b611ab58185611a54565b9350611ac5818560208601611a65565b611ace81611a8f565b840191505092915050565b600081519050919050565b600082825260208201905092915050565b6000819050602082019050919050565b611b0e81611a28565b82525050565b6000611b208383611b05565b60208301905092915050565b6000602082019050919050565b6000611b4482611ad9565b611b4e8185611ae4565b9350611b5983611af5565b8060005b83811015611b8a578151611b718882611b14565b9750611b7c83611b2c565b925050600181019050611b5d565b5085935050505092915050565b600061012082019050611bad600083018c611a3a565b8181036020830152611bbf818b611aa0565b90508181036040830152611bd3818a611aa0565b90508181036060830152611be78189611aa0565b90508181036080830152611bfb8188611aa0565b905081810360a0830152611c0f8187611aa0565b905081810360c0830152611c238186611aa0565b905081810360e0830152611c378185611b39565b9050611c47610100830184611971565b9a9950505050505050505050565b600080fd5b600080fd5b7f4e487b7100000000000000000000000000000000000000000000000000000000600052604160045260246000fd5b611c9782611a8f565b810181811067ffffffffffffffff82111715611cb657611cb5611c5f565b5b80604052505050565b6000611cc961199b565b9050611cd58282611c8e565b919050565b600067ffffffffffffffff821115611cf557611cf4611c5f565b5b611cfe82611a8f565b9050602081019050919050565b82818337600083830152505050565b6000611d2d611d2884611cda565b611cbf565b905082815260208101848484011115611d4957611d48611c5a565b5b611d54848285611d0b565b509392505050565b600082601f830112611d7157611d70611c55565b5b8135611d81848260208601611d1a565b91505092915050565b600067ffffffffffffffff821115611da557611da4611c5f565b5b602082029050602081019050919050565b600080fd5b611dc481611a28565b8114611dcf57600080fd5b50565b600081359050611de181611dbb565b92915050565b6000611dfa611df584611d8a565b611cbf565b90508083825260208201905060208402830185811115611e1d57611e1c611db6565b5b835b81811015611e465780611e328882611dd2565b845260208401935050602081019050611e1f565b5050509392505050565b600082601f830112611e6557611e64611c55565b5b8135611e75848260208601611de7565b91505092915050565b600080600080600080600060e0888a031215611e9d57611e9c6119a5565b5b600088013567ffffffffffffffff811115611ebb57611eba6119aa565b5b611ec78a828b01611d5c565b975050602088013567ffffffffffffffff811115611ee857611ee76119aa565b5b611ef48a828b01611d5c565b965050604088013567ffffffffffffffff811115611f1557611f146119aa565b5b611f218a828b01611d5c565b955050606088013567ffffffffffffffff811115611f4257611f416119aa565b5b611f4e8a828b01611d5c565b945050608088013567ffffffffffffffff811115611f6f57611f6e6119aa565b5b611f7b8a828b01611d5c565b93505060a088013567ffffffffffffffff811115611f9c57611f9b6119aa565b5b611fa88a828b01611d5c565b92505060c088013567ffffffffffffffff811115611fc957611fc86119aa565b5b611fd58a828b01611e50565b91505092959891949750929550565b600060208284031215611ffa57611ff96119a5565b5b600082013567ffffffffffffffff811115612018576120176119aa565b5b61202484828501611d5c565b91505092915050565b600081519050919050565b600082825260208201905092915050565b6000819050602082019050919050565b600082825260208201905092915050565b600061207582611a49565b61207f8185612059565b935061208f818560208601611a65565b61209881611a8f565b840191505092915050565b600082825260208201905092915050565b60006120bf82611ad9565b6120c981856120a3565b93506120d483611af5565b8060005b838110156121055781516120ec8882611b14565b97506120f783611b2c565b9250506001810190506120d8565b5085935050505092915050565b61211b81611967565b82525050565b60006101208301600083015161213a6000860182611b05565b5060208301518482036020860152612152828261206a565b9150506040830151848203604086015261216c828261206a565b91505060608301518482036060860152612186828261206a565b915050608083015184820360808601526121a0828261206a565b91505060a083015184820360a08601526121ba828261206a565b91505060c083015184820360c08601526121d4828261206a565b91505060e083015184820360e08601526121ee82826120b4565b915050610100830151612205610100860182612112565b508091505092915050565b600061221c8383612121565b905092915050565b6000602082019050919050565b600061223c8261202d565b6122468185612038565b93508360208202850161225885612049565b8060005b8581101561229457848403895281516122758582612210565b945061228083612224565b925060208a0199505060018101905061225c565b50829750879550505050505092915050565b600060208201905081810360008301526122c08184612231565b905092915050565b6000602082840312156122de576122dd6119a5565b5b60006122ec84828501611dd2565b91505092915050565b60008115159050919050565b61230a816122f5565b82525050565b60006020820190506123256000830184612301565b92915050565b60006020820190506123406000830184611a3a565b92915050565b6000806040838503121561235d5761235c6119a5565b5b600061236b858286016119c6565b925050602061237c85828601611dd2565b9150509250929050565b60006101008201905061239c600083018b611a3a565b81810360208301526123ae818a611aa0565b905081810360408301526123c28189611aa0565b905081810360608301526123d68188611aa0565b905081810360808301526123ea8187611aa0565b905081810360a08301526123fe8186611aa0565b905081810360c08301526124128185611aa0565b905061242160e0830184611971565b9998505050505050505050565b7f496e76616c69642066696c652049440000000000000000000000000000000000600082015250565b6000612464600f83611a54565b915061246f8261242e565b602082019050919050565b6000602082019050818103600083015261249381612457565b9050919050565b7f4e487b7100000000000000000000000000000000000000000000000000000000600052602260045260246000fd5b600060028204905060018216806124e157607f821691505b6020821081036124f4576124f361249a565b5b50919050565b7f4f6e6c7920636f757274206f6666696369616c732063616e2075706c6f61642060008201527f66696c6573000000000000000000000000000000000000000000000000000000602082015250565b6000612556602583611a54565b9150612561826124fa565b604082019050919050565b6000602082019050818103600083015261258581612549565b9050919050565b7f4950465320686173682069732072657175697265640000000000000000000000600082015250565b60006125c2601583611a54565b91506125cd8261258c565b602082019050919050565b600060208201905081810360008301526125f1816125b5565b9050919050565b7f4174206c65617374206f6e6520636c69656e74206d757374206265206c696e6b60008201527f6564000000000000000000000000000000000000000000000000000000000000602082015250565b6000612654602283611a54565b915061265f826125f8565b604082019050919050565b6000602082019050818103600083015261268381612647565b9050919050565b7f4e487b7100000000000000000000000000000000000000000000000000000000600052601160045260246000fd5b60006126c482611967565b91507fffffffffffffffffffffffffffffffffffffffffffffffffffffffffffffffff82036126f6576126f561268a565b5b600182019050919050565b60008190508160005260206000209050919050565b60006020601f8301049050919050565b600082821b905092915050565b6000600883026127637fffffffffffffffffffffffffffffffffffffffffffffffffffffffffffffffff82612726565b61276d8683612726565b95508019841693508086168417925050509392505050565b6000819050919050565b60006127aa6127a56127a084611967565b612785565b611967565b9050919050565b6000819050919050565b6127c48361278f565b6127d86127d0826127b1565b848454612733565b825550505050565b600090565b6127ed6127e0565b6127f88184846127bb565b505050565b5b8181101561281c576128116000826127e5565b6001810190506127fe565b5050565b601f8211156128615761283281612701565b61283b84612716565b8101602085101561284a578190505b61285e61285685612716565b8301826127fd565b50505b505050565b600082821c905092915050565b600061288460001984600802612866565b1980831691505092915050565b600061289d8383612873565b9150826002028217905092915050565b6128b682611a49565b67ffffffffffffffff8111156128cf576128ce611c5f565b5b6128d982546124c9565b6128e4828285612820565b600060209050601f8311600181146129175760008415612905578287015190505b61290f8582612891565b865550612977565b601f19841661292586612701565b60005b8281101561294d57848901518255600182019150602085019450602081019050612928565b8683101561296a5784890151612966601f891682612873565b8355505b6001600288020188555050505b505050505050565b600061010082019050818103600083015261299a818b611aa0565b905081810360208301526129ae818a611aa0565b905081810360408301526129c28189611aa0565b905081810360608301526129d68188611aa0565b905081810360808301526129ea8187611aa0565b905081810360a08301526129fe8186611aa0565b9050612a0d60c0830185611971565b81810360e0830152612a1f8184611b39565b90509998505050505050505050565b600081905092915050565b6000612a4482611a49565b612a4e8185612a2e565b9350612a5e818560208601611a65565b80840191505092915050565b6000612a768284612a39565b915081905092915050565b60008154612a8e816124c9565b612a988186612a2e565b94506001821660008114612ab35760018114612ac857612afb565b60ff1983168652811515820286019350612afb565b612ad185612701565b60005b83811015612af357815481890152600182019150602081019050612ad4565b838801955050505b50505092915050565b6000612b108284612a81565b915081905092915050565b7f4e487b7100000000000000000000000000000000000000000000000000000000600052603260045260246000fd5b7f4f6e6c7920746865206f776e65722063616e20706572666f726d20746869732060008201527f616374696f6e0000000000000000000000000000000000000000000000000000602082015250565b6000612ba6602683611a54565b9150612bb182612b4a565b604082019050919050565b60006020820190508181036000830152612bd581612b99565b9050919050565b7f436c69656e7420616c7265616479206c696e6b65640000000000000000000000600082015250565b6000612c12601583611a54565b9150612c1d82612bdc565b602082019050919050565b60006020820190508181036000830152612c4181612c05565b905091905056fea264697066735822122030fb4a694a407a0f019085611ea95682e5cf8cebca8cee9c32c922a1145982ee64736f6c63430008180033",
  "linkReferences": {},
  "deployedLinkReferences": {}
}